:020000040800F2
:100000000000022059540008090F00080B0F0008D7
:100010000D0F00080F0F0008110F0008000000006E
:10002000000000000000000000000000130F0008A6
:10003000150F000800000000170F0008190F000836
:10004000A9540008A9540008A9540008A95400089C
:10005000A9540008A9540008A9540008A95400088C
:10006000A9540008A9540008A9540008A95400087C
:10007000A9540008A9540008A9540008A95400086C
:10008000A9540008A9540008A9540008A95400085C
:10009000A9540008A9540008A9540008A95400084C
:1000A000A9540008A9540008A9540008A95400083C
:1000B000A9540008A9540008A9540008A95400082C
:1000C000A9540008A9540008A9540008A95400081C
:1000D000A9540008A9540008A9540008A95400080C
:1000E000A9540008A9540008A9540008A9540008FC
:1000F000A9540008A9540008A9540008A9540008EC
:10010000A9540008A9540008A9540008A9540008DB
:10011000A9540008A9540008A9540008A9540008CB
:10012000210F0008A9540008A9540008A954000888
:10013000A95400080000000000000000A9540008B5
:10014000A9540008A9540008A9540008A95400089B
:10015000A9540008A9540008A9540008A95400088B
:10016000A9540008A9540008A9540008A95400087B
:10017000A9540008A9540008000000000000000075
:08018000A9540008A95400086D
:1001880010F8012B11F8013B012A28BF9A42F7D039
:10019800D01A704753B94AB9002908BF00281CBFB4
:1001A8004FF0FF314FF0FF3000F0E2B8ADF1080C2E
:1001B8006DE904CE05F06EFFDDF804E0DDE9022309
:1001C80004B0704700F1340191E838009C46A64617
:1001D8004CF8045D90E8FF0FE54600BD90EC210B5C
:1001E800704700BF80EC210B704700BF90EC200BDC
:1001F800704700BF80EC200B704700BFD0EC200B8D
:10020800704700BFC0EC200B704700BFF0EC020144
:10021800F0EC0211F0EC0221F0EC0231F0EC0241BA
:10022800F0EC0251F0EC0261F0EC0271F0EC0281AA
:10023800F0EC0291F0EC02A1F0EC02B1F0EC02C19A
:10024800F0EC02D1F0EC02E1F0EC02F1704700BFF3
:10025800E0EC0201E0EC0211E0EC0221E0EC0231FA
:10026800E0EC0241E0EC0251E0EC0261E0EC0271EA
:10027800E0EC0281E0EC0291E0EC02A1E0EC02B1DA
:10028800E0EC02C1E0EC02D1E0EC02E1E0EC02F1CA
:10029800704700BFB0FC0181B0FC0191B0FC01A126
:1002A800B0FC01B1704700BFA0FC0181A0FC019126
:1002B800A0FC01A1A0FC01B1704700BFEC4600B54D
:1002C8002DE900502DE9FF1F4FF000032DE90C0028
:1002D80001A906F099F9DDF840E012B0704700BFB7
:1002E800EC4600B52DE900502DE9FF1F4FF0000343
:1002F8002DE90C0001A906F0C3F9DDF840E012B0C1
:10030800704700BFEC4600B52DE900502DE9FF1FEE
:100318004FF000032DE90C0001A906F0D3F9DDF830
:1003280040E012B0704700BFEC4600B52DE9005020
:100338002DE9FF1F4FF000032DE90C0001AB06F07B
:1003480097F9DDF840E012B0704700BFEC4600B501
:100358002DE900502DE9FF1F4FF000032DE90C0097
:1003680001AA06F009FADDF840E012B0704700BFB4
:10037800704700BF0348044B834202D0034B03B1CC
:10038800184770476800002068000020000000003F
:100398000548064B1B1AD90F01EBA301491002D0DF
:1003A800034B03B11847704768000020680000201D
:1003B8000000000010B5064C237843B9FFF7DAFFB8
:1003C800044B13B10448AFF300800123237010BD20
:1003D80068000020000000005C71000808B5054BAB
:1003E8001BB105490548AFF30080BDE80840FFF799
:1003F800CFBF00BF000000006C0000205C71000847
:100408002DE9F0438BB000240594069407940894D2
:10041800099400944E4B1A6B42F004021A631A6B4B
:1004280002F004020092009A01941A6B42F08002D2
:100438001A631A6B02F080020192019A02941A6BF5
:1004480042F001021A631A6B02F001020292029A48
:1004580003941A6B42F002021A631A6B02F002024A
:100468000392039A04941A6B42F008021A631B6BF6
:1004780003F008030493049B364F22464FF4867119
:10048800384601F06BFEDFF8D880224649F6D041A5
:10049800404601F063FEDFF8CC9022464CF233016F
:1004A800484601F05BFE4FF4624305930325069529
:1004B800079405A9384601F0DDFC059506950794D3
:1004C80005A9254801F0D6FC4FF48673059301264B
:1004D80006960794089405A9384601F0CBFC49F61E
:1004E800D043059306960794089405A9404601F061
:1004F800C1FC202305930694079605A9384601F008
:10050800B9FC4CF23303059306960794089405A9A1
:10051800484601F0AFFC43F604430593069507945B
:1005280005A9484601F0A6FC4FF40073059306950B
:10053800079405A9404601F09DFC04230593069500
:10054800079405A9054801F095FC0BB0BDE8F083B8
:100558000038024000080240001C0240000C024023
:10056800000002400004024000B585B0002300935B
:100578000193029303932948294A02604FF4803279
:100588004260836001220261027680F820304FF0D9
:100598008051C1624FF020618162C3600423C3614E
:1005A80080F83020426100F083FD40BB00230093B7
:1005B80001230193062302936946184800F092FF2D
:1005C80000BB01230093022301936946134800F0FE
:1005D80089FFD0B9022300930323019369460F488A
:1005E80000F080FFA0B90323009304230193694618
:1005F8000A4800F077FF70B905B05DF804FB04F015
:100608004FF8D3E704F04CF8DBE704F049F8E1E7EA
:1006180004F046F8E7E704F043F8EDE7740100203A
:100628000020014000B585B0002300930193029398
:1006380003931548154A02604FF480324260836084
:100648000361037680F82030C362114A8262C36076
:100658000122C26180F83030426100F029FD68B99A
:100668000A23009301230193002302936946064855
:1006780000F038FF28B905B05DF804FB04F010F865
:10068800EEE704F00DF8F6E72C0100200021014008
:100698000100000F00B585B0002300930193029379
:1006A80003931548154A02604FF480324260836014
:1006B8000361037680F82030C362114A8262C36006
:1006C8000122C26180F83030426100F0F1FC68B963
:1006D8000B230093012301930023029369460648E4
:1006E80000F000FF28B905B05DF804FB03F0D8FF5F
:1006F800EEE703F0D5FFF6E7E40000200022014012
:100708000100000F30B58DB00023079308930993BB
:100718000A930B930368424A934207D0414A934293
:100728003FD0414A93425BD00DB030BD044600250E
:1007380001953E4B5A6C42F480725A645A6C02F42A
:1007480080720192019A02951A6B42F001021A63B3
:100758001B6B03F001030293029B0F2307930323F0
:10076800089307A9324801F085FB3248324B0360F1
:1007780045608560C5604FF4806303614FF4006392
:1007880043614FF400538361C5610562456201F01E
:1007980067FD18B9274BA3639C63C5E703F080FF87
:1007A800F8E700210391214B5A6C42F400725A6415
:1007B8005A6C02F400720392039A04911A6B42F085
:1007C80004021A631B6B03F004030493049B1123B4
:1007D80007930323089307A9184801F04BFBA3E7E5
:1007E80000210591114B5A6C42F480625A645A6C8C
:1007F80002F480620592059A06911A6B42F004028F
:100808001A631B6B03F004030693069B02230793EA
:100818000323089307A9094801F02CFB84E700BFCC
:100828000020014000210140002201400038024020
:1008380000000240840000201064024000080240CA
:1008480000B583B000210191094B1A6B42F4800274
:100858001A631B6B03F480030193019B0A4638203B
:1008680001F094FF382001F0B5FF03B05DF804FBF8
:100878000038024008B50D480D4B03604FF48273F1
:10088800436000238360C360036143614FF40072D7
:100898008261C3610362436283620A23C36202F016
:1008A800C5F800B908BD03F0FBFEFBE7BC0100205A
:1008B800003C004000B589B00023039304930593DE
:1008C800069307930268154B9A4202D009B05DF867
:1008D80004FB0021019103F5FE331A6C42F4004237
:1008E8001A641A6C02F400420192019A02911A6B7E
:1008F80042F004021A631B6B03F004030293029B89
:100908004FF4E0530393022304930323069306232F
:10091800079303A9024801F0ADFAD7E7003C00406D
:100928000008024000B58DB02422002103A805F07C
:10093800E1FA0023019302931148124A02604360CE
:1009480083604FF6FF72C2600361836101230393E2
:100958000593099303A902F0A3FE50B9002301935C
:10096800029301A9064803F0E1FC28B90DB05DF82F
:1009780004FB03F095FEF1E703F092FEF6E700BFF3
:10098800340300200004004000B58DB0242200216B
:1009980003A805F0AFFA0023019302931148124A05
:1009A80002604360836044F26402C2600361836151
:1009B8000323039301230593099303A902F070FE0F
:1009C80050B900230193029301A9064803F0AEFC35
:1009D80028B90DB05DF804FB03F062FEF1E703F0FF
:1009E8005FFEF6E7EC0200200008004000B587B083
:1009F80000230293039304930593009301931548EE
:100A0800154A0260A722426083607C22C2600361AB
:100A1800836102F0DDFC98B94FF48053029302A978
:100A28000C4803F019F970B92023009300230193AF
:100A38006946084803F07AFC40B907B05DF804FB42
:100A480003F02EFEE8E703F02BFEEDE703F028FEA7
:100A5800F3E700BFA4020020000C004082B0036846
:100A6800104A934204D0B3F1804F0ED002B07047C1
:100A7800002300930C4B5A6C42F001025A645B6CE1
:100A880003F001030093009BF0E700230193064B5A
:100A98001A6C42F001021A641B6C03F00103019303
:100AA800019BE3E7000001400038024000B58BB02D
:100AB8000023059306930793089309930368244A30
:100AC800934205D0234A934222D00BB05DF804FB31
:100AD80000210191204B1A6C42F002021A641A6C30
:100AE80002F002020192019A02911A6B42F004028A
:100AF8001A631B6B03F004030293029BC023059344
:100B080002230693099305A9144801F0B3F9DCE719
:100B180000210391104B1A6C42F004021A641A6CFB
:100B280002F004020392039A04911A6B42F0020243
:100B38001A631B6B03F002030493049BC023059301
:100B480002230693099305A9054801F093F9BCE728
:100B5800000400400008004000380240000802403D
:100B68000004024084B00368184A934207D0184A28
:100B7800934211D0174A93421BD004B07047002308
:100B88000193154B1A6C42F008021A641B6C03F0AF
:100B980008030193019BF0E7002302930E4B5A6C64
:100BA80042F400325A645B6C03F400330293029BF4
:100BB800E3E700230393084B5A6C42F480225A64FB
:100BC8005B6C03F480230393039BD6E7000C00407F
:100BD80000440140004801400038024000B58BB095
:100BE8000023059306930793089309930368374AEC
:100BF80093420BD0B3F1804F20D0354A934234D082
:100C0800344A934249D00BB05DF804FB00230193AA
:100C1800314B1A6B42F001021A631B6B03F001039C
:100C28000193019B4FF480730593022306930123DC
:100C3800099305A9294801F01DF9E4E70023029367
:100C4800254B1A6B42F001021A631B6B03F0010378
:100C58000293029B20230593022306930123099301
:100C680005A91E4801F006F9CDE7002303931A4BA6
:100C78001A6B42F002021A631B6B03F00203039320
:100C8800039B4FF480730593022306930323099370
:100C980005A9134801F0EEF8B5E7002304930E4BBD
:100CA8001A6B42F002021A631B6B03F002030493EF
:100CB800049B4FF4007305930223069303230993BF
:100CC80005A9074801F0D6F89DE700BF00000140DC
:100CD8000044014000480140003802400000024042
:100CE8000004024010B592B00024109411940994A5
:100CF8000A940B940C940D940E940F942022214680
:100D080001A805F0F7F82348234B0360012343604B
:100D1800846040F24733C36004614461846102F037
:100D28000BFC002829D100231093119310A919480E
:100D380003F0FCFA20BB6023099300220A920B926D
:100D48000C920D920E920F9209A9124802F038FEE9
:100D5800C8B90023019302930393049305934FF4B6
:100D680000520692089301A90A4803F06BFB68B980
:100D78000848FFF733FF12B010BD03F091FCD2E72B
:100D880003F08EFCD7E703F08BFCE2E703F088FC66
:100D9800EEE700BFC40300200000014000B58BB09F
:100DA80000230893099301930293039304930593F3
:100DB8000693079317484FF08042026043608360B0
:100DC80040F24732C2600361836102F0B5FBC0B9EB
:100DD80000230893099308A90E4803F0A7FA98B9C5
:100DE80060230193002202920392059201A9094807
:100DF80002F0E6FD58B90748FFF7F0FE0BB05DF8C2
:100E080004FB03F04DFCE3E703F04AFCE8E703F0DA
:100E180047FCF0E77C03002000B589B0002301936C
:100E28000293039304930593069307931548164A70
:100E38000260436083604FF4D262C26003618361E1
:100E480002F0C6FAA0B90F4802F076FB98B9602301
:100E58000193002202920392059201A9094802F027
:100E6800AFFD58B90748FFF7B9FE09B05DF804FBB4
:100E780003F016FCE7E703F013FCE8E703F010FCC7
:100E8800F0E700BF5C0200200044014000B589B0D3
:100E98000023019302930393049305930693079306
:100EA8001548164A02604360836040F24732C260C8
:100EB8000361836102F08CFAA0B90F4802F03CFB91
:100EC80098B960230193002202920392059201A926
:100ED800094802F075FD58B90748FFF77FFE09B0C9
:100EE8005DF804FB03F0DCFBE7E703F0D9FBE8E778
:100EF80003F0D6FBF0E700BF1402002000480140D1
:100F0800FEE7FEE7FEE7FEE7FEE77047704770473B
:100F180008B501F0C1FC08BD08B5024801F0E8FABF
:100F280008BD00BF8400002082B0002100910B4B57
:100F38005A6C42F480425A645A6C02F4804200921D
:100F4800009A01911A6C42F080521A641B6C03F0EB
:100F580080530193019B02B0704700BF00380240E4
:100F680010B504464F4B5A6822F440325A605A680A
:100F780041680A435A600268536823F480735360D7
:100F880002685368016943EA0123536002685368A1
:100F980023F0407353600268536881680B435360C1
:100FA8000268936823F40063936002689368C168D9
:100FB8000B439360826A3C4B9A425BD00268936809
:100FC80023F07063936002689368816A0B439360AF
:100FD8000268936823F04053936002689368C16A7B
:100FE8000B4393602268936823F00203936022689E
:100FF8009368217E43EA4103936094F82030002BE4
:1010080049D0636A013B072B3FD82268536843F4F1
:10101800006353602268536823F460435360216877
:101028004B68626A013A43EA42334B602268D36AEA
:1010380023F47003D3622168CB6AE269013A43EA78
:101048000253CB622268936823F40073936022688A
:10105800936894F8301043EA4123936022689368B8
:1010680023F48063936022689368616943EA81236B
:10107800936010BD0268936823F070639360026800
:10108800936823F040539360ACE74FF4F561074849
:1010980004F0D8F8B9E72268536823F40063536072
:1010A800C4E700BF002301400100000F747100086D
:1010B800002800F0EE8010B504460368764A934293
:1010C8000CD002F58072934208D002F580729342E8
:1010D80004D04FF4A171714804F0B4F8636843B1C7
:1010E800B3F5803F05D0B3F5003F02D0B3F5403FDC
:1010F80071D1A36843B1B3F1807F05D0B3F1007F0C
:1011080002D0B3F1407F6CD12369012B6FD8237EC5
:10111800012B72D8A36A7BB3B3F1807F2CD0B3F1D3
:10112800007F29D0B3F1407F26D0B3F1806F23D060
:10113800B3F1A06F20D0B3F1C06F1DD0B3F1E06F51
:101148001AD0B3F1006F17D0B3F1106F14D0B3F108
:10115800206F11D0B3F1306F0ED0B3F1406F0BD0C8
:10116800B3F1506F08D0B3F1606F05D0B3F1706F71
:1011780002D04B4A934246D1E36813B1B3F5006FEE
:1011880047D1E369013B0F2B49D894F83030012B44
:101198004BD86369022B4ED894F82030012B50D8D5
:1011A800A26A3F4B9A420AD0E36A43B1B3F1805F27
:1011B80005D0B3F1005F02D0B3F1405F47D1236C93
:1011C800002B4AD0236C13F0100F4ED001200023BF
:1011D80084F83C3010BD40F24311304804F032F836
:1011E80087E74FF4A2712D4804F02CF88CE740F201
:1011F80045112A4804F026F889E74FF4A3712748D7
:1012080004F020F886E740F24711244804F01AF861
:10121800B2E74FF4A471214804F014F8B1E740F2A2
:1012280049111E4804F00EF8AFE74FF4A5711B48AA
:1012380004F008F8ADE740F24B11184804F002F842
:10124800AAE74FF4A671154803F0FCFFA8E74FF48E
:10125800A871124803F0F6FFB1E72046FFF752FAEB
:101268000023636484F83C30ACE7236C23F4885390
:1012780023F0020343F0020323642046FFF770FEC5
:1012880000206064236C23F0030343F0010323640C
:101298009DE70120704700BF0020014074710008DD
:1012A8000100000F10B582B0044600230193037EAD
:1012B800012B25D8E36A43B1B3F1805F05D0B3F1C0
:1012C800005F02D0B3F1405F20D194F83C30012B8D
:1012D80000F09580012384F83C3023689A6812F066
:1012E800010F1FD19A6842F001029A60474B1B68B0
:1012F800474AA2FB03239B0C03EB430301930EE035
:1013080040F2D221434803F09DFFD3E740F2D321B6
:10131800404803F097FFD8E7019B013B0193019BED
:10132800002BF9D12268936813F0010F5CD0236C6D
:1013380023F4E06323F0010343F4807323645368C8
:1013480013F4806F05D0236C23F4405343F4805387
:101358002364236C13F4805F1BD0636C23F00603B3
:101368006364002384F83C306FF0220313602A4B37
:101378005B6813F01F0F27D12368284A934211D0C6
:1013880002F58072934207D0254A934214D0002078
:1013980033E000236364E4E702F50072526812F058
:1013A8001F0FF1D19A6812F0405F2AD19A6842F073
:1013B80080429A60002020E002F58072526812F0A4
:1013C800100FEFD0002018E02368144A934201D090
:1013D800002012E09A6812F0405F14D19A6842F037
:1013E80080429A60002008E0236C43F010032364D5
:1013F800636C43F001036364002002B010BD022057
:10140800FBE70020F9E70020F7E700BF0C00002009
:1014180083DE1B4374710008002301400020014053
:101428000022014070B504460D4603689A6812F41C
:10143800806F03D09B6813F4807F19D101F038FACC
:10144800064623681A6812F0020F20D1B5F1FF3F53
:10145800F7D0B5B923681B6813F0020FF1D1236CDC
:1014680043F004032364002384F83C30032032E073
:10147800036C43F020030364002380F83C30012010
:1014880029E001F015FA801BA842DAD9E2E76FF0EB
:1014980012021A60236C43F40073236423689A6869
:1014A80012F0405F16D1207EB0B9DA6A12F4700FDC
:1014B80003D09B6813F4806F0DD1236C23F48073E1
:1014C8002364236C13F4805F05D1236C43F001037C
:1014D800236400E0002070BD0020FCE70368D86C9E
:1014E8007047000030B583B005460C4600230193D1
:1014F8000B68122B4DD86368013B0F2B4FD8A3689C
:10150800072B52D895F83C30012B00F0C5800123F9
:1015180085F83C302368092B4DD92868C2689BB2EE
:1015280003EB43031E3B072101FA03F322EA0303FB
:10153800C3602868C268A168238803EB43031E3B85
:1015480099400A43C2606368062B49D82868426BF1
:1015580003EB8303053B1F2101FA03F322EA03038C
:1015680043632868426B636803EB8303053B218868
:1015780001FA03F3134343632A68484B9A425FD046
:101588002A68464B9A4264D0002085F83C0003B094
:1015980030BD40F28B61424803F054FEABE740F2A5
:1015A8008C613F4803F04EFEA9E740F28D613C484C
:1015B80003F048FEA6E7286802699BB203EB4303E1
:1015C800072101FA03F322EA030303612868026989
:1015D800A168238803EB430399400A430261B2E7F9
:1015E8000C2B16D82868026B03EB8303233B1F21BF
:1015F80001FA03F322EA030303632868026B6368B2
:1016080003EB8303233B218801FA03F313430363AA
:10161800B2E72868C26A03EB8303413B1F2101FA42
:1016280003F322EA0303C3622868C26A636803EB10
:101638008303413B218801FA03F31343C3629BE709
:101648002368122B9CD1174A536843F480035360D4
:1016580096E72368103B012B96D8124A536843F447
:10166800000353602368102B8ED10F4B1B6802F1C7
:10167800467202F52E3202F28332A2FB03239B0C40
:1016880003EB83035B00019302E0019B013B0193A1
:10169800019B002BF9D177E7022078E70020014071
:1016A80074710008002301400C000020002800F09D
:1016B8005E8270B582B0044603680F2B39D8236860
:1016C80013F0010F4DD063682BB1B3F5803F02D002
:1016D800B3F5A02F32D1804B9B6803F00C03042B89
:1016E80036D07D4B9B6803F00C03082B2BD0636826
:1016F800B3F5803F5FD0B3F5A02F62D0764B1A6860
:1017080022F480321A601A6822F480221A60636810
:10171800002B60D001F0CCF805466F4B1B6813F422
:10172800003F1ED101F0C4F8401B6428F5D90320FE
:1017380024E2E621694803F085FDC0E7EB2167480C
:1017480003F080FDC7E7644B5B6813F4800FCED0CD
:10175800614B1B6813F4003F03D06368002B00F053
:101768000882236813F0020F66D0E368012B41D882
:1017780023691F2B44D8584B9B6813F00C0F4AD091
:10178800554B9B6803F00C03082B3FD0E368002BF4
:1017980077D0534B01221A6001F08AF805464E4B68
:1017A8001B6813F0020F63D101F082F8401B022876
:1017B800F5D90320E2E1484A136843F48033136003
:1017C800A5E7454B1A6842F480221A601A6842F469
:1017D80080321A609BE701F06BF805463E4B1B68A8
:1017E80013F4003FBDD001F063F8401B6428F5D91D
:1017F8000320C3E140F21D11384803F023FDB7E789
:101808004FF48F71354803F01DFDB4E7324B5B6828
:1018180013F4800FBAD1304B1B6813F0020F03D0BA
:10182800E368012B40F0A7812B4A136823F0F803E3
:10183800216943EAC1031360236813F0080F51D0EC
:101848006369012B2FD863699BB3254B0122C3F829
:10185800802E01F02DF805461F4B5B6F13F0020F29
:1018680040D101F025F8401B0228F5D9032085E175
:10187800194A136823F0F803216943EAC103136086
:10188800DAE7174B00221A6001F012F80546124BEE
:101898001B6813F0020FCFD001F00AF8401B022892
:1018A800F5D903206AE14FF4AF710C4803F0CAFC84
:1018B800C9E70B4B0022C3F8802E00F0F9FF05465C
:1018C800054B5B6F13F0020F0CD000F0F1FF401BCB
:1018D8000228F5D9032051E100380240AC71000814
:1018E80000004742236813F0040F7CD0A368012B43
:1018F80001D9052B38D1A54B1B6C13F0805F39D16A
:1019080000230193A14B1A6C42F080521A641B6C9D
:1019180003F080530193019B01259D4B1B6813F431
:10192800807F29D0A368012B3AD0052B3ED0974B56
:101938001A6F22F001021A671A6F22F004021A675E
:10194800A368002B3CD000F0B3FF06468F4B1B6FFB
:1019580013F0020F45D100F0ABFF801B41F2883332
:101968009842F3D9032009E14FF4C571894803F07F
:1019780069FCC0E70025D0E7854A136843F4807303
:10198800136000F095FF0646814B1B6813F4807FB7
:10199800C8D100F08DFF801B0228F5D90320EDE0A7
:1019A8007A4A136F43F001031367C9E7774B1A6F3D
:1019B80042F004021A671A6F42F001021A67BFE781
:1019C80000F076FF0646714B1B6F13F0020F08D02C
:1019D80000F06EFF801B41F288339842F3D9032050
:1019E800CCE0002D3CD1A369022B3FD8A369002B82
:1019F80000F0C380654A926802F00C02082A00F0E1
:101A08009180022B7AD1E36913B1B3F5800F33D1FA
:101A1800236A023B3D2B35D8636A323BB3F5BF7F5F
:101A280036D8A26A082A39D84FF4AA73D34013F0DB
:101A3800010F33D0E36A023B0D2B35D8564B0022F9
:101A48001A6600F035FF0546504B1B6813F0007FFF
:101A580030D000F02DFF401B0228F5D903208DE07F
:101A68004A4A136C23F080531364BCE740F2CD114B
:101A7800484803F0E7FBB9E74FF4EB71454803F03A
:101A8800E1FBC5E740F2D711424803F0DBFBC3E7AF
:101A98004FF4EC713F4803F0D5FBC2E740F2D9118F
:101AA8003C4803F0CFFBC5E74FF4ED71394803F02C
:101AB800C9FBC3E7E369226A1343626A43EA8213F4
:101AC800A26A5208013A43EA0243E26A43EA02631D
:101AD8002E4A5360304B01221A6600F0E9FE044694
:101AE8002A4B1B6813F0007F06D100F0E1FE001BB3
:101AF8000228F5D9032041E000203FE0264B0022D0
:101B08001A6600F0D5FE0446204B1B6813F0007FD0
:101B180006D000F0CDFE001B0228F5D903202DE0E9
:101B280000202BE0012B2BD0184B5B6803F48001BD
:101B3800E269914226D103F03F02216A8A4223D109
:101B4800616A47F6C0721A40B2EB811F26D103F4CE
:101B58004031A26A5208013AB1EB024F20D103F09A
:101B68007063E26AB3EB026F1CD1002006E001202B
:101B78007047012002E0012000E0002002B070BDA3
:101B88000120FBE70120F9E70120F7E700380240D0
:101B980000700040AC710008000047420120EDE7EA
:101BA8000120EBE70120E9E708B5264B9B6803F025
:101BB8000C03042B41D0082B41D1224B5A6802F068
:101BC8003F025B6813F4800F12D01E4B5968C1F3B3
:101BD80088111D480023A1FB0001FEF7DBFA194B11
:101BE8005B68C3F3014301335B00B0FBF3F008BD4E
:101BF800144B5868C0F388104FEA401CBCEB000C2B
:101C08006EEB0E0E4FEA8E1343EA9C634FEA8C117B
:101C1800B1EB0C0163EB0E03DB0043EA5173C9001F
:101C280011EB000C43F10003990200234FEA8C20CA
:101C380041EA9C51FEF7AEFAD1E70348D7E70348DB
:101C4800D5E700BF0038024040787D010024F40049
:101C5800002800F0FA8070B50D4604460368013B81
:101C68000E2B32D8072D36D87C4B1B6803F00703A0
:101C7800AB4208D2EBB2794A1370136803F007033A
:101C8800AB4240F0E480236813F0020F3ED013F01B
:101C9800040F04D0724A936843F4E05393602368B6
:101CA80013F0080F04D06E4A936843F460439360BE
:101CB800A36823B3C02B22D016D8A02B1FD010D8CE
:101CC800802B1CD0902B1AD014E040F25A21654882
:101CD80003F0B8FAC6E740F25B21624803F0B2FAB3
:101CE800C2E7B02B0BD005E0E02B08D0F02B06D0D4
:101CF800D02B04D040F27E215A4803F0A3FA584A68
:101D0800936823F0F003A1680B439360236813F0F2
:101D1800010F3CD06368032B25D86368012B28D0BA
:101D28009A1E012A2CD94E4A126812F0020F00F0AE
:101D380090804B498A6822F0030213438B6000F0BD
:101D4800B7FD0646464B9B6803F00C036268B3EB8D
:101D5800820F1CD000F0ACFD801B41F28833984202
:101D6800F0D9032064E040F285213E4803F06AFA86
:101D7800D3E73B4A126812F4003FDAD1012057E05A
:101D8800374A126812F0007FD3D1012050E0334B5C
:101D98001B6803F00703AB4207D9EAB22F4B1A704E
:101DA8001B6803F00703AB4255D1236813F0040FF7
:101DB80014D0E3685BB1B3F5805F08D0B3F5A05FDA
:101DC80005D0B3F5C05F02D0B3F5E05F31D1244A46
:101DD800936823F4E053E1680B439360236813F09E
:101DE800080F15D023695BB1B3F5805F08D0B3F550
:101DF800A05F05D0B3F5C05F02D0B3F5E05F1ED198
:101E0800174A936823F46043216943EAC103936046
:101E1800FFF7CAFE124B9B68C3F30313124AD35C45
:101E2800D840124B1860124B186800F0F5FC0020DF
:101E380070BD40F2C3210B4803F004FAC7E740F233
:101E4800CA21084803F0FEF9DAE7012070470120AB
:101E5800EEE70120ECE70120EAE700BF003C024082
:101E680000380240AC7100083C7300080C000020E8
:101E7800080000202DE9F04182B007460E46A84B25
:101E8800984223D003F5806398421FD003F58063FE
:101E980098421BD003F58063984217D003F58063FE
:101EA800984213D003F5806398420FD003F58063FE
:101EB80098420BD003F58063984207D003F58063FE
:101EC800984203D0AC21974803F0BCF933689AB222
:101ED80012B1B3F5803F03D3AD21924803F0B2F9B4
:101EE8007368B3F5041F1BD00DD8B3F5881F17D03E
:101EF80005D8032B14D9113B012B11D90CE0B3F5EC
:101F0800901F0DD008E0B3F5441F09D0B3F5481F62
:101F180006D0B3F5081F03D0AE21824803F092F92A
:101F280000247AE0F368032B13D8BA68610003230E
:101F38008B4022EA0302F3688B401343BB607A6844
:101F480022EA05027368C3F30013A34013437B60BE
:101F580074E0C021734803F075F9E6E7D1217148B0
:101F680003F070F972E033694BB1013B0E2B17D8BF
:101F780044F6FF3222FA03F313F0010F10D0E208FF
:101F8800083257F8220004F0070189000F238B401C
:101F980020EA030033698B40034347F8223065E0A9
:101FA800DE21604803F04EF9E9E7072300E000234B
:101FB8008B40034302325C4941F822305B4B9A68FC
:101FC8006FEA080322EA0801706810F4801F01D044
:101FD80048EA0201554A9160D26803EA0201706832
:101FE80010F4001F01D048EA0201504AD16052683B
:101FF80003EA0201706810F4003F01D048EA0201C8
:102008004A4A516012681340716811F4803F01D048
:1020180048EA0203454A136001340F2C7DD8012594
:10202800A540336803EA050835EA0303F4D1736869
:1020380003F00303013B012B7FF674AF736803F0D1
:102048000303032B0CD0B368022B87D8FA6861000E
:1020580003238B4022EA0302B3688B401343FB60DF
:10206800736803F00303022B3FF47DAF3A68610005
:1020780003238B4022EA0302736803F003038B40B7
:1020880013433B60736813F4403FC5D000230193AA
:10209800274B5A6C42F480425A645B6C03F48043C9
:1020A8000193019BA208911C1F4B53F8210004F0D7
:1020B800030189000F238B4020EA0300184B9F423D
:1020C8003FF475AF03F580639F421AD003F5806330
:1020D8009F4218D003F580639F4216D003F58063B2
:1020E8009F4214D003F580639F4212D003F58063AA
:1020F8009F4210D003F580639F423FF456AF0823F8
:1021080056E7012354E7022352E7032350E7042349
:102118004EE705234CE706234AE702B0BDE8F08105
:1021280000000240E471000800380140003C014012
:102138000038024038B504460D4621B123691D42D6
:1021480007D0012038BD4FF4BE71034803F07AF878
:10215800F4E70020F6E700BFE471000870B5054613
:1021680014460E4621B1012C08D86CB1AE6170BD81
:1021780040F29D11064803F065F8F4E74FF4CF717B
:10218800034803F05FF8F0E73604AE61EFE700BFFD
:10219800E471000810B40368D9B210390A4AA2FBE6
:1021A80001421209094CA25CC2655F2907D96FF385
:1021B800090304338365806D5DF8044B70476FF342
:1021C80009038365F7E700BFABAAAAAA347300081E
:1021D800836A826992B9012B0AD0022B02D00BB113
:1021E80000207047C36A13F0807F28D10020704711
:1021F800C36AB3F1C07F24D000207047B2F5005FF6
:1022080009D0022B25D9032B25D1C36A13F0807F6F
:1022180023D100207047032B03D8DFE803F0140410
:10222800140A00207047C36A13F0807F0DD1002084
:102238007047C36AB3F1C07F09D0002070470120FE
:102248007047012070470120704701207047012026
:102258007047012070470020704701207047000038
:1022680070B5044600F024FB002C00F03E810546C2
:102278002368954A934231D0183293422ED01832AF
:1022880093422BD01832934228D01832934225D04B
:102298001832934222D0183293421FD018329342F8
:1022A8001CD002F55672934218D01832934215D0BA
:1022B8001832934212D0183293420FD018329342F8
:1022C8000CD01832934209D01832934206D01832F3
:1022D800934203D0B7217D4802F0B4FF6368A3B1ED
:1022E800B3F1007F11D0B3F1806F0ED0B3F1C06F9E
:1022F8000BD0B3F1006F08D0B3F1206F05D0B3F164
:10230800406F02D0B3F1606F6DD1A3681BB1402B51
:1023180001D0802B6CD1E368B3F5007F01D0002B8E
:102328006BD12369B3F5806F01D0002B6AD1636943
:102338002BB1B3F5006F02D0B3F5805F67D1A36905
:102348002BB1B3F5005F02D0B3F5804F64D1E369D8
:1023580023B1B3F5807F01D0202B62D1236A43B12A
:10236800B3F5803F05D0B3F5003F02D0B3F5403F49
:102378005CD1636A0BB1042B5DD1636AC3B1A36AF4
:10238800032B5DD8E36A43B1B3F5000F05D0B3F171
:10239800807F02D0B3F1C07F57D1236B43B1B3F52F
:1023A800001F05D0B3F5800F02D0B3F5C00F51D18F
:1023B800022384F83530002384F834302268136807
:1023C80023F00103136023681A6812F0010F46D046
:1023D80000F06EFA401B0528F5D920236365032019
:1023E80084F8350070BDB821384802F02BFF8CE71F
:1023F800B921364802F026FF8DE7BA21334802F0AA
:1024080021FF8EE7BB21314802F01CFF8FE7BC217A
:102418002E4802F017FF92E7BD212C4802F012FF68
:1024280095E7BE21294802F00DFF97E7BF2127480D
:1024380002F008FF9DE7C021244802F003FF9CE753
:10244800C521224802F0FEFE9CE7C6211F4802F083
:10245800F9FEA2E7C7211D4802F0F4FEA8E71A68B2
:102468001B4911406268A0680243E0680243206982
:10247800024360690243A0690243E0690243206A9B
:1024880002430A43616A042924D01A6026687569E0
:1024980025F00705636A1D43042B07D1A36A1D4372
:1024A800E36A1BB12046FFF793FEC0B97561204669
:1024B800FFF770FEE26D3F23934083600020606564
:1024C800012384F835308DE7106002401C72000843
:1024D8003F8010F0E16A206B01430A43D5E74023AF
:1024E8006365012084F835007CE701207AE700BFA6
:1024F800F0B583B0044600230193724B1D68724BFC
:10250800A3FB0535AD0A876D3E68C26D082393406D
:10251800334210D003681A6812F0040F0BD01A68FF
:1025280022F004021A60C26D08239340BB60436D19
:1025380043F001034365E26D01239340334209D020
:102548002268526912F0800F04D0BB60636D43F0BB
:1025580002036365E26D04239340334209D0226885
:10256800126812F0020F04D0BB60636D43F00403DD
:102578006365E26D10239340334224D022681268C9
:1025880012F0080F1FD0BB6023681A6812F4802F5E
:102598000DD01B6813F4002F04D1236C9BB1204687
:1025A800984710E0A36C73B1204698470BE01A686F
:1025B80012F4807F03D11A6822F008021A60236C93
:1025C8000BB120469847E26D20239340334255D003
:1025D8002268126812F0100F50D0BB6094F83530A2
:1025E800DBB2052B0ED023681A6812F4802F33D083
:1025F8001B6813F4002F2AD1636C002B3ED02046B1
:1026080098473BE02268136823F01603136022689A
:10261800536923F080035361236CA3B122681368C4
:1026280023F008031360E26D3F239340BB6001234E
:1026380084F83530002384F83430236D002B3FD0E4
:10264800204698473CE0A36C002BE7D1EBE7E36B0F
:10265800A3B12046984711E01A6812F4807F09D187
:102668001A6822F010021A60012384F8353000231A
:1026780084F83430E36B0BB120469847636DFBB1A7
:10268800636D13F0010F17D0052384F835302268E5
:10269800136823F001031360019B01330193AB42DC
:1026A80004D823681B6813F0010FF5D1012384F8BF
:1026B8003530002384F83430E36C0BB1204698475A
:1026C80003B0F0BD0C000020B5814E1B002807DBCD
:1026D80000F01F02400901239340024A42F82030CB
:1026E800704700BF00E100E0002808DB0901C9B21B
:1026F80000F1604000F5614080F80013704700F079
:102708000F000901C9B2014B1954704714ED00E0DC
:1027180000B500F00700C0F1070CBCF1040F28BF9A
:102728004FF0040C031D062B0FD9C31E4FF0FF3EBC
:102738000EFA0CF021EA000199400EFA03FE22EA93
:102748000E0241EA02005DF804FB0023EEE70000F8
:1027580010B50446C31E042B0FD80A4AD36823F4C5
:10276800E0631B041B0C240204F4E064234343F0DD
:10277800BF6343F40033D36010BD9021024802F0D8
:1027880061FDEAE700ED00E05472000870B5064606
:102798000C4615460F2A0ED80F2C11D80B4BD868AB
:1027A8002A462146C0F30220FFF7B2FF0146304611
:1027B800FFF79AFF70BDA821054802F043FDEBE73B
:1027C800A921034802F03EFDE8E700BF00ED00E064
:1027D8005472000810B5041E03DB2046FFF776FF8D
:1027E80010BDBC21014802F02DFDF6E75472000827
:1027F8000138B0F1807F0BD24FF0E0235861054AD1
:10280800F02182F823100020986107221A6170478E
:102818000120704700ED00E010B504460E4B1A7811
:102828004FF47A73B3FBF2F30C4A1068B0FBF3F081
:10283800FFF7DEFF68B90F2C01D901200AE000225A
:1028480021464FF0FF30FFF7A1FF054B1C60002029
:1028580000E0012010BD00BF040000200C00002093
:102868000800002008B50B4B1A6842F400721A6081
:102878001A6842F480621A601A6842F480721A6018
:102888000320FFF765FF0F20FFF7C6FFFEF74CFB9D
:10289800002008BD003C0240034A1168034B1B7826
:1028A8000B441360704700BF0C0400200400002094
:1028B800014B1868704700BF0C04002038B5044667
:1028C800FFF7F6FF0546B4F1FF3F02D0044B1B7833
:1028D8001C44FFF7EDFF401BA042FAD338BD00BFF0
:1028E800040000202DE9F04782B0054688461746C7
:1028F8001E46FFF7DDFF0A9B1B1A03EB0609FFF7CD
:10290800D7FF8246284B1B68C3F3CB3309FB03F37D
:1029180001932B689C6838EA04040CBF0123002348
:10292800BB423DD0B6F1FF3FF3D0FFF7C1FFA0EBAC
:102938000A00484507D2019A02B14A46019B013B69
:1029480001939146E5E72A68536823F0E003536052
:102958006B68B3F5827F0BD0AB6AB3F5005F14D018
:10296800012385F85130002385F85030032018E002
:10297800AB68B3F5004F02D0B3F5806FECD12A688D
:10298800136823F040031360E6E72A68136823F40A
:10299800005313602A68136843F400531360DFE799
:1029A800002002B0BDE8F0870C00002070B584B0AC
:1029B80004460D46164600920B4601220221FFF7F7
:1029C80091FFD0B9174B1B68174AA2FB03235B0D75
:1029D8004FF47A7202FB03F303936368B3F5827FC3
:1029E80011D0039B3BB1039B013B039323689B6876
:1029F80013F0800FF5D104B070BD636D43F0200370
:102A080063650320F7E700962B46002280212046C5
:102A1800FFF768FF0028EED0636D43F0200363657D
:102A28000320E8E70C000020819F5E16002800F0D4
:102A3800228110B504460368904A93420CD0A2F54F
:102A48007842934208D002F58062934204D04FF452
:102A5800A0718B4802F0F6FB636813B1B3F5827F6F
:102A680026D1A3682BB1B3F5806F02D0B3F5004F20
:102A780024D1E368B3F5006F00D02BBBA369B3F58D
:102A8800007F03D013B1B3F5802F23D1E3699BB343
:102A9800182B25D8082B05D37A4A22FA03F313F00A
:102AA800010F29D140F24511754802F0CBFB23E014
:102AB80040F24111724802F0C5FBD2E74FF4A17110
:102AC8006F4802F0BFFBD4E740F243116C4802F0B4
:102AD800B9FBD3E74FF4A271694802F0B3FBD5E71D
:102AE800382BDFD8202BDDD3203B4FF0013222FAE0
:102AF80003F313F0010FD5D0236A0BB1802B14D147
:102B0800636A0BB1102B16D1636A002B45D1236978
:102B18000BB1022B15D16369012B18D86368B3F583
:102B2800827F1AD00023E36158E04FF4A371544820
:102B380002F088FBE4E740F24711514802F082FBBB
:102B4800E2E74FF4A5714E4802F07CFBE3E740F260
:102B58004B114B4802F076FBE0E7E369002B3DD0D0
:102B6800182B0DD8082B05D3464A22FA03F313F085
:102B7800010F33D140F24F11414802F063FB2DE0C1
:102B8800382BF7D8202BF5D3203B4FF0013222FA0F
:102B980003F313F0010F21D1ECE7E369DBB1182B44
:102BA8000DD8082B05D3374A22FA03F313F0010F87
:102BB80011D140F25911324802F044FB0BE0382B96
:102BC800F7D8202BF5D3203B4FF0013222FA03F33C
:102BD80013F0010FEDD00023236163610023A3628A
:102BE80094F85130002B40D0022384F851302268E9
:102BF800136823F040031360636803F48273A268C8
:102C080002F404421343E26802F4006213432269A7
:102C180002F002021343626902F001021343A2693F
:102C280002F400721343E26902F038021343226A85
:102C380002F080021343A26A02F40052216813438F
:102C48000B60638B03F00403626A02F010022168D0
:102C580013434B602268D36923F40063D3610020D7
:102C68006065012384F8513010BD84F85030204647
:102C7800FDF720FEB8E70120704700BF0030014093
:102C88008C720008000101012DE9F04383B004466D
:102C9800884691461F460A9D8368002B59D1FFF745
:102CA80007FE064694F85130DBB26268012B0AD061
:102CB800B2F5827F40F00B81A268002A40F00B81B8
:102CC800042B40F00A81B8F1000F00F00881B9F137
:102CD800000F00F00681002F00F0058194F85030B5
:102CE800012B00F00281012384F8503094F8513010
:102CF800DBB2042B02D0052384F85130002363652E
:102D0800C4F83890E787A787C4F83080E786A78695
:102D18002364636423681A6812F0400F03D11A68A9
:102D280042F040021A60E368B3F5006F17D0636899
:102D38000BB1012F0BD1226B236812781A73236B06
:102D480001332363E38E9BB2013B9BB2E3860127E9
:102D580077E040F27E41664802F074FA9FE76368C4
:102D68000BB1012F0BD1226B23681288DA60236B19
:102D780002332363E38E9BB2013B9BB2E3860127B8
:102D88001BE023689A6812F0010F0ED0E28F92B20E
:102D98005AB1DA68A36B1A80A36B0233A363E38F7B
:102DA8009BB2013B9BB2E3870127FFF781FD801BA4
:102DB800A84202D3B5F1FF3F1ED1E38E9BB21BB9E7
:102DC800E38F9BB2002B62D023689A6812F0020F3F
:102DD800D7D0E28E92B2002AD3D0002FD1D0226B66
:102DE8001288DA60236B02332363E38E9BB2013BC4
:102DF8009BB2E3860027C4E7012384F851300023FF
:102E080084F85030032063E023689A6812F0010FB9
:102E18000ED0E28F92B25AB1DA68A36B1A70A36B24
:102E28000133A363E38F9BB2013B9BB2E387012786
:102E3800FFF73EFD831BAB4202D3B5F1FF3F1ED126
:102E4800EDB1E38E9BB213B9E38F9BB2FBB123685C
:102E58009A6812F0020FD7D0E28E92B2002AD3D02D
:102E6800002FD1D0226B12781A73236B013323639E
:102E7800E38E9BB2013B9BB2E3860027C4E70123A4
:102E880084F85130002384F85030032020E0324683
:102E980029462046FFF78AFD90B9A36833B9019304
:102EA8002368DA6801929B680193019B012384F8E7
:102EB8005130002384F85030636D4BB1012007E096
:102EC80020236365002384F85030012000E00220AD
:102ED80003B0BDE8F0830220FAE70220F8E70120FA
:102EE800F6E70120F4E70120F2E70220F0E700BF4F
:102EF8008C72000810B4036A046A24F001040462A6
:102F0800846924F0F00C4CEA021223F00A030B4304
:102F1800826103625DF8044B704710B4036A046A67
:102F280024F010040462846924F4704C4CEA0232E0
:102F380023F0A00343EA0113826103625DF8044BA6
:102F48007047836823F070030B4343F007038360E3
:102F5800704700002DE9F04104460D46036A026AF5
:102F680022F0010202624768826922F0730209684E
:102F780041EA020823F00203AE681E43204B984240
:102F880003D003F58063984209D1EB680BB1082B95
:102F980024D126F00806EB68334323F00406184BC7
:102FA8009C4203D003F580639C420FD1AB69B3F513
:102FB800007F00D0C3B96B69B3F5807F00D0CBB96F
:102FC80027F440776B693B43AF691F436760C4F8D8
:102FD80018806B6863632662BDE8F08141F6D021F2
:102FE800084802F02FF9D4E741F6DD21054802F040
:102FF80029F9E0E741F6DE21024802F023F9DFE78C
:1030080000000140C47200082DE9F04104460E4654
:10301800056A036A23F4807303624768C36923F06F
:1030280073030A6842EA030825F400758B6845EAC9
:103038000325224B984203D003F5806398420AD1B6
:10304800F3680BB1082B27D125F40065F36845EA2E
:10305800032525F48065194B9C4203D003F5806352
:103068009C4211D1B369B3F5007F00D0D3B973691D
:10307800B3F5807F00D0DBB927F44057736947EA7E
:103088000317B36947EA03176760C4F81C807368BD
:10309800E3632562BDE8F08141F66731084802F034
:1030A800D1F8D1E741F67431054802F0CBF8DEE7F4
:1030B80041F67531024802F0C5F8DDE7000001402D
:1030C800C47200082DE9F04104460D46066A036AF9
:1030D80023F480530362D0F80480C76927F4E647D5
:1030E8000B6847EA032726F400568B6846EA03363E
:1030F8000F4B984203D003F58063984209D16B695E
:10310800B3F5807F00D063B928F480486B6948EA3A
:103118008318C4F80480E7616B6823642662BDE8FD
:10312800F08141F6B431034802F08CF8ECE700BFB7
:1031380000000140C472000810B5044603683E4A06
:10314800934237D0B3F1804F34D0A2F57C429342FA
:1031580030D002F5806293422CD002F5806293420F
:1031680028D002F58062934224D002F5806293420F
:1031780020D002F5704293421CD002F5705293425F
:1031880018D002F58062934214D002F5806293420F
:1031980010D0A2F5983293420CD002F58062934287
:1031A80008D002F58062934204D04FF4E8712348B6
:1031B80002F048F894F83D30DBB2012B37D10223F6
:1031C80084F83D302268D36843F00103D360236854
:1031D800194A934220D0B3F1804F1DD0A2F57C420A
:1031E800934219D002F58062934215D002F58062AD
:1031F800934211D002F5784293420DD002F57052F5
:10320800934209D0A2F59432934205D01A6842F04D
:1032180001021A6000200BE09A6802F00702062AF1
:1032280007D01A6842F001021A60002000E001206D
:1032380010BD0020FCE700BF00000140C472000878
:1032480010B5044603682A4A934237D0B3F1804F39
:1032580034D0A2F57C42934230D002F5806293428A
:103268002CD002F58062934228D002F58062934206
:1032780024D002F58062934220D002F57042934236
:103288001CD002F57052934218D002F58062934226
:1032980014D002F58062934210D0A2F5983293427E
:1032A8000CD002F58062934208D002F58062934206
:1032B80004D04FF4FC710F4801F0C4FF2268D368B2
:1032C80023F00103D3602368196A41F211121142F5
:1032D80008D1196A40F24442114203D11A6822F017
:1032E80001021A60012384F83D30002010BD00BFA0
:1032F80000000140C47200080368344A904212D0AA
:10330800B0F1804F0FD0A2F57C4290420BD002F56D
:103318008062904207D002F58062904203D002F5A5
:103328007842904203D123F070034A681343274A36
:1033380090422AD0B0F1804F27D0A2F57C4290422B
:1033480023D002F5806290421FD002F5806290423D
:103358001BD002F57842904217D002F57052904285
:1033680013D002F5806290420FD002F5806290423D
:103378000BD0A2F59832904207D002F580629042B5
:1033880003D002F58062904203D123F44073CA68E7
:10339800134323F080034A69134303608B68C362B5
:1033A8000B688362094B984203D003F58063984207
:1033B80001D10B69036301234361036913F0010F12
:1033C80003D0036923F00103036170470000014043
:1033D800002800F0A98010B504460368534A9342B8
:1033E80037D0B3F1804F34D0A2F57C42934230D02D
:1033F80002F5806293422CD002F58062934228D075
:1034080002F58062934224D002F58062934220D074
:1034180002F5704293421CD002F57052934218D0C4
:1034280002F58062934214D002F58062934210D074
:10343800A2F5983293420CD002F58062934208D0EC
:1034480002F58062934204D040F21311384801F02B
:10345800F9FEA3683BB1102B05D0202B03D0402BDD
:1034680001D0602B17D123692BB1B3F5807F02D02F
:10347800B3F5007F15D12368B3F1804F17D02D4ADB
:10348800934214D0E368013B4FF6FE7293428CBF1F
:10349800002301230FE04FF48A71254801F0D2FE82
:1034A800E1E740F21511224801F0CCFEE3E7E368BA
:1034B800003B18BF01232BB3A3690BB1802B27D185
:1034C80094F83D3053B3022384F83D30214651F837
:1034D800040BFFF711FF012384F8463084F83E30CF
:1034E80084F83F3084F8403084F8413084F8423022
:1034F80084F8433084F8443084F8453084F83D300B
:10350800002010BD4FF48B71094801F09BFED3E7F2
:1035180040F21711064801F095FED1E784F83C30D7
:103528002046FDF71FFBCEE7012070470000014051
:10353800C4720008000C0040002800F0A98010B5F3
:1035480004460368534A934237D0B3F1804F34D0CE
:10355800A2F57C42934230D002F5806293422CD08F
:1035680002F58062934228D002F58062934224D00B
:1035780002F58062934220D002F5704293421CD03B
:1035880002F57052934218D002F58062934214D02B
:1035980002F58062934210D0A2F5983293420CD083
:1035A80002F58062934208D002F58062934204D00B
:1035B80040F22C51384801F045FEA3683BB1102B6E
:1035C80005D0202B03D0402B01D0602B17D12369C5
:1035D8002BB1B3F5807F02D0B3F5007F15D12368F6
:1035E800B3F1804F17D02D4A934214D0E368013BC2
:1035F8004FF6FE7293428CBF002301230FE040F286
:103608002D51254801F01EFEE1E740F22E512248D7
:1036180001F018FEE3E7E368003B18BF01232BB372
:10362800A3690BB1802B27D194F83D3053B3022303
:1036380084F83D30214651F8040BFFF75DFE012365
:1036480084F8463084F83E3084F83F3084F84030BF
:1036580084F8413084F8423084F8433084F84430A8
:1036680084F8453084F83D30002010BD40F22F51D9
:10367800094801F0E7FDD3E74FF4A661064801F0D9
:10368800E1FDD1E784F83C302046FDF7E7F9CEE7C5
:103698000120704700000140C4720008000C00407F
:1036A800002800F02581F8B50C4605460368914AC4
:1036B80093421FD0B3F1804F1CD0A2F57C429342B5
:1036C80018D002F58062934214D002F580629342CA
:1036D80010D002F5784293420CD002F57052934212
:1036E80008D0A2F59432934204D040F6D8318248EB
:1036F80001F0A8FDAB683BB1102B05D0202B03D0FF
:10370800402B01D0602B4DD12B692BB1B3F5807FB5
:1037180002D0B3F5007F4BD1AB690BB1802B4DD1F3
:103728002368013B022B4FD8A368013B022B51D8D9
:10373800A369013B022B53D863680BB1022B55D107
:1037480063690BB1022B57D1E3684BB1043B082BDB
:1037580058D840F2111222FA03F313F0010F51D096
:10376800E3694BB1043B082B52D840F2111222FAFC
:1037780003F313F0010F4BD023690F2B4ED8236AA4
:103788000F2B51D82B68B3F1804F53D05B4A93422B
:1037980050D0EB68013B4FF6FE7293428CBF00237A
:1037A80001234BE040F6D931534801F04BFDABE71C
:1037B80040F6DA31504801F045FDADE740F6DB311F
:1037C8004D4801F03FFDABE740F6DC314A4801F0D7
:1037D80039FDA9E740F6DD31474801F033FDA7E799
:1037E80040F6DE31444801F02DFDA5E740F6DF3113
:1037F800414801F027FDA3E74FF43E613E4801F040
:1038080021FDA1E740F6E1313B4801F01BFDA7E7A8
:1038180040F6E231384801F015FDADE740F6E331F6
:10382800354801F00FFDAAE740F6E431324801F0CF
:1038380009FDA7E7EB68003B18BF0123002B4BD01D
:1038480095F83D30002B4DD0022385F83D302A688D
:10385800936823F4804323F007039360294651F8C3
:10386800040BFFF749FD29688B688A690E6A20688E
:10387800184322F4407222F00302A368A76943EABE
:103888000723134323F47C4323F0FC03E268E7692E
:1038980042EA07221A43236A1B03276943EA0713EC
:1038A800134326F0AA066268646942EA04123243A6
:1038B800886029688B612B681A62012385F8463075
:1038C80085F83E3085F83F3085F8423085F843303A
:1038D80085F83D300020F8BD40F6E531064801F096
:1038E800B1FCADE785F83C302846FDF7DFF8ABE7DB
:1038F8000120704700000140C4720008000C00401D
:103908002DE9F04104460E46056A036A23F01003C8
:103918000362D0F80480876927F4E6470B6847EA12
:10392800032725F020058B6845EA0315224B9842AA
:1039380003D003F5806398420AD1F3680BB1082BD2
:1039480027D125F08005F36845EA031525F04005E1
:10395800194B9C4203D003F580639C4211D1B36993
:10396800B3F5007F00D0D3B97369B3F5807F00D079
:10397800DBB928F44068736948EA8308B36948EA00
:103988008308C4F80480A7617368A3632562BDE84F
:10399800F08141F61C31094801F054FCD1E741F6A9
:1039A8002931064801F04EFCDEE741F62A3103488A
:1039B80001F048FCDDE700BF00000140C4720008C8
:1039C80070B504460D4616460C2A2CD841F2111340
:1039D800D34013F0010F28D02B68602B01D0702B37
:1039E80029D1AB680BB1022B2BD12B690BB1042B5E
:1039F8002DD194F83C30012B00F01A81012384F872
:103A08003C300C2E00F20F81DFE816F027000D0184
:103A18000D010D0170000D010D010D01AA000D0130
:103A28000D010D01DB003C2AD6D041F2820181480C
:103A380001F008FCD0E741F283017E4801F002FC66
:103A4800CFE741F284017B4801F0FCFBCDE741F26E
:103A58008501784801F0F6FBCBE72368764A934264
:103A68002FD0B3F1804F2CD0A2F57C42934228D0BE
:103A780002F58062934224D002F58062934220D0FE
:103A880002F5784293421CD002F57052934218D046
:103A980002F58062934214D002F58062934210D0FE
:103AA800A2F5983293420CD002F58062934208D076
:103AB80002F58062934204D041F28F015D4801F023
:103AC800C1FB29462068FFF745FA2268936943F04D
:103AD800080393612268936923F0040393612268C1
:103AE800936929690B43936100209DE02368524A3A
:103AF80093421FD0B3F1804F1CD0A2F57C42934271
:103B080018D002F58062934214D002F58062934285
:103B180010D002F5784293420CD002F570529342CD
:103B280008D0A2F59432934204D04FF4855141480D
:103B380001F088FB29462068FFF7E2FE22689369B6
:103B480043F4006393612268936923F4806393616B
:103B580022689369296943EA01239361002063E09D
:103B68002368354A934217D0B3F1804F14D0A2F599
:103B78007C42934210D002F5806293420CD002F549
:103B88008062934208D002F57842934204D041F211
:103B9800B101284801F056FB29462068FFF734FA9E
:103BA8002268D36943F00803D3612268D36923F0FC
:103BB8000403D3612268D36929690B43D3610020C8
:103BC80032E023681C4A934217D0B3F1804F14D0D7
:103BD800A2F57C42934210D002F5806293420CD049
:103BE80002F58062934208D002F57842934204D0ED
:103BF80041F2C2010F4801F025FB29462068FFF772
:103C080061FA2268D36943F40063D3612268D369F7
:103C180023F48063D3612268D369296943EA0123C5
:103C2800D361002000E00120002384F83C3070BDFF
:103C38000220FCE7C47200080000014010B4846848
:103C480024F47F4C42EA03220A4342EA0C028260CF
:103C58005DF8044B7047000038B590F83C30012BF4
:103C680000F0728204460D46012380F83C3002239E
:103C780080F83D300B68702B06D046D8502B03D007
:103C8800602B01D0402B46D12268936823F47F43F0
:103C980023F0770393602B68602B00F0AB8100F270
:103CA8008F80402B00F0ED8149D8202B03D042D8DB
:103CB8000BB1102B3DD123689D4A93421FD0B3F11D
:103CC800804F1CD0A2F57C42934218D002F5806246
:103CD800934214D002F58062934210D002F57842E4
:103CE80093420CD002F57052934208D0A2F5943258
:103CF800934204D041F235518E4801F0A3FA296865
:103D08002068FFF71EF90020AAE0B3F5805FBBD05A
:103D1800B3F5005FB8D0002BB6D0102BB4D0202B51
:103D2800B2D0302BB0D041F2C341824801F08AFAB8
:103D3800AAE7012094E0302BBDD0012090E0502B61
:103D48003CD123687A4A93421FD0B3F1804F1CD0EC
:103D5800A2F57C42934218D002F58062934214D0B7
:103D680002F58062934210D002F5784293420CD05B
:103D780002F57052934208D0A2F59432934204D0CF
:103D880041F202516B4801F05DFA6B68B3F5004FE0
:103D980005D023B1022B02D00A2B40F01F81EB681B
:103DA8000F2B00F22181EA6869682068FFF7A2F802
:103DB80050212068FFF7C5F8002051E001204FE0AE
:103DC800B3F5805F55D0B3F5005F00F0B580702B78
:103DD8004DD12368564A93421FD0B3F1804F1CD06F
:103DE800A2F57C42934218D002F58062934214D027
:103DF80002F58062934210D002F5784293420CD0CB
:103E080002F57052934208D0A2F59432934204D03E
:103E180041F2D641474801F015FAAB6843B1B3F512
:103E2800805F05D0B3F5005F02D0B3F5405F6CD179
:103E38006B68B3F5004F04D01BB1022B01D00A2BDD
:103E480069D1EB680F2B6CD8EB686A68A9682068A1
:103E5800FFF7F4FE2268936843F07703936000202D
:103E6800012384F83D30002384F83C3038BD01201C
:103E7800F6E723682E4A934200F04A81B3F1804F57
:103E880000F04881A2F57C42934200F0458102F59A
:103E98008062934200F0428102F58062934200F012
:103EA8003F8102F58062934200F03C8102F5806216
:103EB800934200F0398102F57042934200F0368156
:103EC80002F57052934200F0338102F5806293420A
:103ED80000F0308102F58062934200F02D81A2F556
:103EE8009832934200F02A8102F58062934200F0F2
:103EF800278102F58062934200F0248141F2CF418C
:103F08000C4801F09FF90020AAE741F2D94109487D
:103F180001F098F98CE741F2DA41064801F092F98C
:103F28008FE741F2DB41034801F08CF98CE700BFD1
:103F380000000140C47200082368844A934217D0E5
:103F4800B3F1804F14D0A2F57C42934210D002F511
:103F5800806293420CD002F58062934208D002F549
:103F68007842934204D041F2EE41794801F06AF96F
:103F7800AB6843B1B3F5805F05D0B3F5005F02D0FD
:103F8800B3F5405F18D16B68B3F5004F04D01BB18F
:103F9800022B01D00A2B15D1EB680F2B18D8EB6830
:103FA8006A68A9682068FFF749FE2268936843F4A5
:103FB80080439360002053E741F2F141644801F0E7
:103FC80041F9E0E741F2F241614801F03BF9E3E7EA
:103FD80041F2F3415E4801F035F9E0E741F205515D
:103FE8005B4801F02FF9DAE641F20651584801F032
:103FF80029F9D8E62368554A93421FD0B3F1804F78
:104008001CD0A2F57C42934218D002F580629342FC
:1040180014D002F58062934210D002F578429342A0
:104028000CD002F57052934208D0A2F59432934214
:1040380004D041F21251464801F004F96B68B3F517
:10404800004F04D01BB1022B01D00A2B0DD1EB6815
:104058000F2B10D8EA6869682068FEF75EFF6021B8
:104068002068FEF76EFF0020FAE641F21551384845
:1040780001F0E8F8EBE741F21651354801F0E2F8B3
:10408800E8E72368314A93421FD0B3F1804F1CD030
:10409800A2F57C42934218D002F58062934214D074
:1040A80002F58062934210D002F5784293420CD018
:1040B80002F57052934208D0A2F59432934204D08C
:1040C80041F22251224801F0BDF86B68B3F5004F68
:1040D80004D01BB1022B01D00A2B0DD1EB680F2B9A
:1040E80010D8EA6869682068FEF704FF4021206854
:1040F800FEF727FF0020B3E641F22551144801F0EE
:10410800A1F8EBE741F22651114801F09BF8E8E7E6
:104118000020A5E60020A3E60020A1E600209FE6F7
:1041280000209DE600209BE6002099E6002097E607
:10413800002095E6002093E6002091E600208FE617
:1041480000208DE600208BE602208FE6000001406B
:10415800C472000870B504460D461646274B9842AF
:104168002FD0B0F1804F2CD0A3F57C43984228D0B3
:1041780003F58063984224D003F58063984220D0E9
:1041880003F5784398421CD003F57053984218D031
:1041980003F58063984214D003F58063984210D0E9
:1041A800A3F5983398420CD003F58063984208D061
:1041B80003F58063984204D041F69F51104801F0FE
:1041C80041F80C2D12D841F21113EB4013F0010FF6
:1041D8000ED005F01F050122AA40236A23EA020334
:1041E8002362236AAE401E43266270BD3C2DF0D088
:1041F8004FF4ED51024801F025F8EAE700000140CC
:10420800C47200082DE9F84304460E4690F83E5063
:10421800EDB290F83F70FFB290F842805FFA88F8EC
:1042280090F843305FFA83F903683E4A93421FD0FF
:10423800B3F1804F1CD0A2F57C42934218D002F50E
:104248008062934214D002F58062934210D002F546
:10425800784293420CD002F57052934208D0A2F5EE
:104268009432934204D040F696412F4800F0EAFF7A
:10427800BEB9012D48D1B8F1010F46D1022384F807
:104288003E3084F842306EB3042E37D0012200212C
:104298002068FFF75FFF012204212068FFF75AFF1B
:1042A80025E0042E13D0012D36D1012F2DD1B8F1E0
:1042B800010F33D1B9F1010F32D1022384F83E3016
:1042C80084F83F3084F8423084F84330DBE7012F2C
:1042D8001ED1B9F1010F1DD1022384F83F3084F8B3
:1042E8004330D0E7012200212068FFF733FF22681E
:1042F800136843F001031360002506E0012204213E
:104308002068FFF727FFF2E701252846BDE8F88374
:104318000125FAE73D46F8E70125F6E73D46F4E7CB
:104328004546F2E700000140C472000838B504466B
:104338000D460368414A93421FD0B3F1804F1CD009
:10434800A2F57C42934218D002F58062934214D0C1
:1043580002F58062934210D002F5806293420CD03D
:1043680002F58062934208D002F57042934204D06D
:1043780040F2A971324800F065FF2B686BB1402B01
:104388000BD04CD8202B08D0302B06D0102B04D0C3
:1043980040F2AA712A4800F055FF6B68802B01D0C3
:1043A800002B43D194F83C30012B45D0012384F8ED
:1043B8003C30022384F83D3023685968986821F01E
:1043C80070012A680A435A6023681C4A93421AD02B
:1043D800B3F1804F17D0A2F57C42934213D002F577
:1043E800806293420FD002F5806293420BD002F5AF
:1043F8007842934207D002F57052934203D0A2F557
:104408009432934204D120F080006A6802439A6093
:10441800012384F83D30002084F83C0038BD602B2F
:10442800BBD0702BB9D0502BB2D1B6E740F2AB71EC
:10443800034800F007FFB5E70220EFE7000001405E
:10444800FC72000838B504460D460368444A934296
:1044580008D002F58062934204D040F2E6714148E8
:1044680000F0F0FE2B68B3F5006F01D0002B4AD1A5
:104478006B68B3F5806F01D0002B4AD1AB6843B1AC
:10448800B3F5807F05D0B3F5007F02D0B3F5407F48
:1044980045D1EB68FF2B48D82B69B3F5805F01D075
:1044A800002B48D16B6913B1B3F5005F49D1EB69B3
:1044B800B3F5804F01D0002B49D194F83C30012B43
:1044C8004BD0012384F83C30EB6823F44073AA688E
:1044D800134323F480636A68134323F400632A6850
:1044E800134323F480532A69134323F400536A695E
:1044F800134323F48043EA6913432268536400207A
:1045080084F83C0038BD40F2E771164800F09AFE86
:10451800AEE74FF4FD61134800F094FEAEE740F2B9
:10452800E971104800F08EFEB3E740F2EA710D48D9
:1045380000F088FEB0E740F2EB710A4800F082FE16
:10454800B0E740F2EC71074800F07CFEAFE740F2BC
:10455800ED71044800F076FEAFE70220D2E700BF15
:1045680000000140FC720008034AD2F8883043F486
:104578007003C2F88830704700ED00E001207047F2
:1045880008B501F003FD162303604FF0FF3008BDA6
:1045980008B54FF0FF31FFF7F3FFFEE7024A02606C
:1045A800024A0260704700BFAC740008D873000864
:1045B800024A0260024A0260704700BF4474000861
:1045C800A8730008024A0260024A0260704700BFEE
:1045D8001C750008BC730008024A0260024A0260A7
:1045E800704700BF78740008F4730008024A02603C
:1045F800024A0260704700BFE47400080C740008A7
:1046080010B50446044B0360044B03600C2100F012
:10461800C1FF204610BD00BFAC740008D873000865
:1046280010B50446044B0360044B0360082100F0F6
:10463800B1FF204610BD00BF44740008A8730008ED
:1046480010B50446044B0360044B03600C2100F0D2
:10465800A1FF204610BD00BF1C750008BC730008F0
:1046680010B50446044B0360044B0360082100F0B6
:1046780091FF204610BD00BF78740008F47300084D
:1046880010B50446044B0360044B0360102100F08E
:1046980081FF204610BD00BFE47400080C740008B8
:1046A80072B6FEE700B595B03022002108A801F0E7
:1046B80021FC002303930493059306930793019326
:1046C8001F4A116C41F080511164126C02F0805243
:1046D8000192019A02931B4A116841F480411160CA
:1046E800126802F480420292029A02220892012180
:1046F8000B9110210C910E920F9308231093A8236D
:10470800119312920423139308A8FCF7CFFF98B9CA
:104718000F23039302230493002305934FF4A0531C
:1047280006934FF480530793052103A8FDF790FAE9
:1047380020B915B05DF804FBFFF7B2FFFFF7B0FF33
:10474800003802400070004000B589B0FEF78AF8D2
:10475800FFF7A8FFFBF754FEFCF772F8FCF78AF89E
:10476800FCF7C0FAFCF71AFBFCF7DCF8FCF70CF9CD
:10477800FCF752FBFCF78AFBFCF738F9AC4B1B68DB
:10478800BFF35B8F13F0010F05D1A94801F053FA6D
:10479800002840F0E181A74B1B68BFF35B8F13F043
:1047A800010F05D1A34801F046FA002840F0E38143
:1047B800A14B1B68BFF35B8F13F0010F05D19E4817
:1047C80001F039FA002840F0E5819C4B1B68BFF3E3
:1047D8005B8F13F0010F05D1984801F02CFA0028DF
:1047E80040F0E681964B1B68BFF35B8F13F0010F17
:1047F80005D1934801F01FFA002840F0E781914B5A
:104808001B68BFF35B8F13F0010F05D18D4801F0D2
:1048180012FA002840F0E9818B4B1B68BFF35B8FCD
:1048280013F0010F05D1884801F005FA002840F07F
:10483800EB81864B1B68BFF35B8F13F0010F05D12B
:10484800824801F0F8F9002840F0ED81804B1B68A0
:10485800BFF35B8F13F0010F05D17D4801F0EBF931
:10486800002840F0EF817B4B1B68BFF35B8F13F090
:10487800010F05D1774801F0DEF9002840F0F081FA
:10488800754B1B68BFF35B8F13F0010F05D172489E
:1048980001F0D1F9002840F0F181704B1B68BFF39B
:1048A8005B8F13F0010F05D16C4801F0C4F90028A3
:1048B80040F0F2816A4B1B68BFF35B8F13F0010F66
:1048C80005D1674801F0B7F9002840F0F481654B3D
:1048D8001B68BFF35B8F13F0010F05D1614801F02E
:1048E800AAF9002840F0F6815F4B1B68BFF35B8F85
:1048F80013F0010F05D15C4801F09DF9002840F044
:10490800F7815A4B1B68BFF35B8F13F0010F05D17A
:10491800564801F090F9002840F0F881544B1B6884
:10492800BFF35B8F13F0010F05D1514801F083F9F4
:10493800002840F0F9814F4B1B68BFF35B8F13F0E1
:10494800010F05D14B4801F076F9002840F060824C
:10495800494B1B68BFF35B8F13F0010F05D1464825
:1049680001F069F9002840F06082444B1B68BFF3EE
:104978005B8F13F0010F05D1404801F05CF9002866
:1049880040F060823E4B1B68BFF35B8F13F0010F52
:1049980005D13B4801F04FF9002840F05C82394BC3
:1049A8001B68BFF35B8F13F0010F05D1354801F089
:1049B80042F9002840F05882334B1B68BFF35B8FE5
:1049C80013F0010F05D1304801F035F9002840F007
:1049D80054822E4B1B68BFF35B8F13F0010F05D178
:1049E8002A4801F028F9002840F05082284B1B681B
:1049F800BFF35B8F13F0010F05D1254801F01BF9B8
:104A0800002840F05082234B1B68BFF35B8F13F0E4
:104A1800010F05D11F4801F00EF9002840F050821F
:104A28001D4B1B68BFF35B8F13F0010F3CD135E0C2
:104A38001C0600200C060020FC050020EC050020C8
:104A4800DC050020CC050020BC050020AC050020BA
:104A58009C0500208C0500207C0500206C050020AA
:104A68005C0500204C0500203C0500202C0500209A
:104A7800200500201405002008050020FC04002063
:104A8800F0040020E4040020D8040020C80400201A
:104A9800BC040020B00400209C040020A94801F0B8
:104AA800CAF8002840F01982A74B1B68BFF35B8F38
:104AB80013F0010F05D1A44801F0BDF8002840F01B
:104AC8001B82A24B1B68BFF35B8F13F0010F05D14C
:104AD8009E4801F0B0F8002840F018829C4B1B68F3
:104AE800BFF35B8F13F0010F05D1994801F0A3F8CC
:104AF800002840F02582974B1B68BFF35B8F13F0AB
:104B0800010F05D1934801F096F8002840F0208263
:104B1800914B1B68BFF35B8F13F0010F05D18E48D3
:104B280001F089F8002840F01D828C4B1B68BFF308
:104B38005B8F13F0010F40F02D82884801F07BF85D
:104B4800002800F027829FED860A864B864A87490F
:104B5800874800F05AFC11E24FF400428549864824
:104B680000F0E4FB854A8649834800F09AFC8548B2
:104B780001F070F80FE64FF480427E49824800F059
:104B8800D5FB7E4A7E49804800F08BFC7F4801F0C7
:104B980061F80DE620227749734800F0C7FB774A91
:104BA8007749714800F07DFC794801F053F80CE62C
:104BB800102270496B4800F0B9FB704A7049694887
:104BC80000F06FFC734801F045F80BE64FF4805293
:104BD8007149724800F0AAFB684A69496F4800F0B9
:104BE80060FC6F4801F036F809E64FF400626A4944
:104BF8006C4800F09BFB614A61496A4800F051FC2F
:104C0800694801F027F807E64FF48062624967486F
:104C180000F08CFB594A5A49644800F042FC644849
:104C280001F018F805E64FF480726249624800F016
:104C38007DFB524A5249604800F033FC5F4801F05E
:104C480009F803E6802254495D4800F06FFB4B4A9F
:104C58004B495B4800F025FC5A4800F0FBFF02E690
:104C680004225449584800F061FB444A44495648D4
:104C780000F017FC554800F0EDFF01E608224D4909
:104C8800534800F053FB3D4A3D49514800F009FCA8
:104C9800504800F0DFFF00E64FF480723E494E486E
:104CA80000F044FB354A36494B4800F0FAFB4B48C4
:104CB80000F0D0FFFEE54FF400423749484800F0C5
:104CC80035FB2E4A2E49464800F0EBFB454800F0DC
:104CD800C1FFFCE501222749434800F027FB274A8A
:104CE8002749414800F0DDFB404800F0B3FFFBE5F1
:104CF800022220493E4800F019FB204A20493C483E
:104D080000F0CFFB3B4800F0A5FFFAE52022294937
:104D1800394800F00BFB194A1949374800F0C1FB24
:104D2800364800F097FFF9E53549364800F0AEFA05
:104D3800124A3549334800F0B4FB344800F08AFF82
:104D4800F9E500BF9C040020900400205C040020CA
:104D580050040020400400202804002010040020F3
:104D680000005244F005002000060020F404002052
:104D78001404002000040240200600200000002047
:104D8800A54500081C060020100600200C0600207F
:104D9800FC050020EC05002000000240E005002092
:104DA800DC050020D0050020CC050020C00500202F
:104DB800BC05002000080240B0050020AC0500201A
:104DC800A00500209C050020900500208C050020EF
:104DD800800500207C050020700500206C0500205F
:104DE800600500205C050020500500204C050020CF
:104DF800400500203C050020300500202C0500203F
:104E08007401002024050020B94500082005002071
:104E1800B449B54800F03AFAB44AB549B24800F086
:104E280040FBB44800F016FF92E5B349B34800F0E0
:104E38002DFAAE4AAE49B14800F033FBB04800F055
:104E480009FF92E50022AF49AF4800F07DFAAF486C
:104E580000F000FF96E50022AD49AE4800F074FA74
:104E6800AD4800F0F7FE9AE50022AC49AC4800F0E6
:104E78006BFAAC4800F0EEFE9EE50022AA49AB486A
:104E880000F062FAAA4800F0E5FEA2E5A949AA489E
:104E980000F090FA954AA949A74800F002FBA848F3
:104EA80000F0D8FEA2E5A749A74800F011FA8F4AFA
:104EB800A649A54800F0F5FAA54800F0CBFEA2E502
:104EC800A449A54800F004FA884AA049A24800F07D
:104ED800E8FAA24800F0BEFEA2E51023A04AA149C4
:104EE800A14800F04BFA814AA0499F4800F0D9FA3E
:104EF8009F4800F0AFFED7E54FF47A729D499E486F
:104F080000F064FA9D4800F0A5FEDAE59C4B079393
:104F18009C4B06939C4B05939C4B04939C4B03938F
:104F28009C4B02939C4B01939C4B00939C4B9D4A3A
:104F38009D499E4800F073FA9D4800F08BFECDE530
:104F480089499C4800F067FA9B4800F083FED2E547
:104F580004239A4A9A499B4800F075FA9A4800F047
:104F680079FED5E59FED990A994B9A4A66499A4880
:104F780000F04BFA994800F06DFED6E5984800F02D
:104F880069FE07E001280ED07D4800F0B7F932200D
:104F9800FDF794FC784800F01CFA0028F2D17A4812
:104FA80000F0ACF9F3E7774800F0A8F9EFE78D488F
:104FB80000F04DFE00F0F0FA8B4800F048FE00F0DB
:104FC800EBFA8A4800F043FE00F0E6FA884800F061
:104FD8003EFE00F0E1FA874800F039FE00F0DCFA06
:104FE800854800F034FE00F0D7FA844800F02FFE20
:104FF80000F0D2FA824800F02AFE00F0CDFA81488B
:1050080000F025FE00F0C8FA7F4800F020FE00F00E
:10501800C3FA7E4800F01BFE00F0BEFA7C4800F0A0
:1050280016FE00F0B9FA7B4800F011FE00F0B4FA61
:10503800794800F00CFE00F0AFFA784800F007FE5F
:1050480000F0AAFA764800F002FE00F0A5FA7548CA
:1050580000F0FDFD00F0A0FA264800F0F8FD00F091
:105068009BFA274800F0F3FD00F096FA274800F075
:10507800EEFD00F091FA284800F0E9FD00F08CFA06
:10508800284800F0E4FD00F087FA294800F0DFFD29
:1050980000F082FA2A4800F0DAFD00F07DFA2C4888
:1050A80000F0D5FD00F078FA2C4800F0D0FD00F0B3
:1050B80073FA2F4800F0CBFD00F06EFA2F4800F08D
:1050C800C6FD00F069FA3A4800F0C1FD00F064FA44
:1050D800394800F0BCFD00F05FFA3B4800F0B7FD2E
:1050E80000F05AFA2C0100201805002000000020CA
:1050F800B945000814050020E40000200C05002034
:1051080008050020C403002000050020FC0400203E
:1051180014020020F4040020F00400205C020020A7
:10512800E8040020E40400207C030020DC040020C4
:10513800D8040020A4020020CC040020CD4500089B
:10514800C804002034030020C0040020E145000802
:10515800BC040020EC020020B4040020B0040020AD
:1051680000000240BC010020A0040020F545000812
:105178009C040020300500209404002090040020A6
:105188004005002050050020600500207005002023
:105198008005002090050020A0050020B005002013
:1051A800C0050020D0050020E00500206004002094
:1051B8005C04002054040020500400202C06002029
:1051C80074010020440400204004002000005244E0
:1051D80010060020200600202C04002028040020AF
:1051E800100400201C0600200C060020FC050020EE
:1051F800EC050020DC050020CC050020BC050020C3
:10520800AC0500209C0500208C0500207C050020B2
:105218006C0500205C0500204C0500203C050020A2
:105228002C05002020050020044800F010FD00F0A7
:10523800B3F9034800F00BFD00F0AEF92804002094
:1052480010040020704710B584B004460023009372
:10525800019302930393012910D001230193694616
:105268006068FCF73FF96068FCF71CF80A21606881
:10527800FCF7D8F828B1002004B010BD0123009332
:10528800EBE76068FCF72AF980B2F5E710B5044649
:10529800084B0360084B03604160FBF765F9FBF7B7
:1052A800C1F9FBF7F7F903E0024B236000F074F94A
:1052B800204610BDA87300084474000843681B68A2
:1052C800586A704743681B6800225A62704700009A
:1052D80010B504460846074B2360074B23606160FE
:1052E8003C21FEF78FFF03E0024B236000F054F9E6
:1052F800204610BDF47300087874000808B5012230
:1053080001894068FCF72AFF08BD08B50022018919
:105318004068FCF723FF08BD08B501894068FCF721
:1053280009FF012814BF0020012008BD10B4044C57
:105338000460044C0460416002815DF8044B7047CE
:10534800D8730008AC74000801604260704708B563
:10535800002281898068FCF701FF08BD08B5012299
:1053680081898068FCF7FAFE08BD10B582B04068F4
:10537800049C0094FDF788FC02B010BD10B4054CE5
:105388000460054C04604160826083815DF8044BD1
:10539800704700BF0C740008E4740008816070470F
:1053A80008B54068FDF7C8FE08BD08B54068FDF7B8
:1053B80047FF08BD034A0260034A026041600022B9
:1053C80082607047BC7300081C7500080160426069
:1053D800704738B50446006803681B69984708B1E8
:1053E800002038BDFDF764FA0546206803681B698C
:1053F80098470028F9D0FDF75BFA401B63688342A1
:1054080001D90120EDE70220EBE701608260C3606B
:1054180080ED040A70470160002242607047016015
:1054280042608360009BC360019B0361029B4361F0
:10543800039B8361049BC361059B0362069B4362D4
:10544800079B836270470160426083607047000079
:10545800DFF834D0FFF788F80C480D490D4A0023CF
:1054680002E0D458C4500433C4188C42F9D30A4A11
:105478000A4C002301E013600432A242FBD300F07F
:105488008BFDFFF761F97047000002200000002043
:1054980068000020247900086800002084070020A4
:1054A800FEE70B460146184600F016BD7FB50024FE
:1054B8001023CDE90234036815469E6912686B46CD
:1054C800CDE90044B0479DF8043003F00603062BED
:1054D80003BF009B2B600120204604B070BD0098DC
:1054E80090420CBF062001207047000010B5034B06
:1054F8000360044600F033FC204610BD68750008C0
:1055080010B50446FFF7F2FF2046082100F042F8E4
:10551800204610BD2DE9F0411F46DDE90834DDF8CD
:10552800188098450646154607D1079900F01AFCD9
:1055380018B165710020BDE8F0813946304600F0A9
:1055480011FC0028F6D00123C4F800802571A3714E
:10555800F0E738B515461C4600F004FC20B10823D6
:10556800E36006232560237138BD2DE9F041054627
:105578000C4616461F4600F0F5FB48B9032F07D81E
:1055880023683246294620465B69BDE8F041184742
:10559800BDE8F08100F0FCBB1EB400F09CF81EBC16
:1055A800FAF79EFE0378472B17D143784E2B14D178
:1055B8008378552B11D1C378432B0ED10379432B14
:1055C8000BD143792B2B08D183792B2B05D1C079AB
:1055D80001288CBF00200120704700207047000080
:1055E8002DE9F3411D460378472B0E460246C17943
:1055F80013D143784E2B10D18378552B0DD1C37816
:10560800432B0AD10379462B07D143794F2B04D179
:105618008379522B01D1002931D01046FFF7C2FF00
:1056280080F00104E4B200230020019053BB5CBB6E
:1056380001290ABF52F8203CA2F12003783B012936
:1056480008BF52F8202C1C6818BF583201922368F2
:1056580020469B689847C8B1019B1B6801930227A5
:10566800336801AAD3F81080214601233046C04789
:1056780070B1019B2B60384602B0BDE8F081012370
:105688000C46D1E7034CE2E7034CE0E70127E7E7E4
:105698000746F0E7AC750008D875000810B5044651
:1056A80000F032F802462046A4F12001FFF77AFF05
:1056B80060B154F8043C0133012B44F8043C03D195
:1056C800936844F8083C9160012010BD9368002B52
:1056D800F9D000F099FA10B500F016F88268014682
:1056E8000AB900F091FA02F120042046FFF75AFFA8
:1056F80040B1D369013BD36113B990698860936164
:10570800204610BD8860FBE700487047340600203B
:1057180030B500231A4610F8015B05F07F04944069
:1057280023432C0602F10702F5D40B6030BD30B5D7
:1057380000231A4610F8014B04F07F0595402B43CF
:10574800250602F10702F5D41F2A06D8640642BFCF
:105758004FF0FF3404FA02F213430B6030BD5028B7
:105768002DE9F3410646884615461F4608D1D01C48
:1057780020F0030050F8044B3C6002B0BDE8F08113
:1057880000F00F030C2B2ED8DFE803F025071D25AA
:10579800292D2D2D2D182125290001A92846FFF78F
:1057A800B7FF019C002CE7D006F07003102B08BF50
:1057B800A8464444330648BF2468DDE701A92846C3
:1057C800FFF7B5FFEDE7284630F8024BEAE7284631
:1057D80030F9024BE6E7284650F8044BE2E7284642
:1057E80050F8084BDEE700F05BFB08B50346FF2BDB
:1057F80008460DD003F07003302B0FD004D8202BAF
:1058080008D005D900F04CFB402B0BD0502BF9D118
:10581800002008BDBDE8084001F099BCBDE808407B
:1058280001F092BCBDE8084001F07EBC70B50C46A2
:105838000146204615461E46FFF7D7FF3346014668
:105848002A462046BDE87040FFF789BF73B50C466D
:105858001546064608B101F067FC2246286012F892
:10586800011BFF291CD02B1D3046FFF7DFFF024626
:10587800104610F8013BFF2B14D010232B7501A9FB
:10588800FFF746FF019B0344EB6010F8013B6B7583
:1058980001A9FFF73DFF019B03442B6102B070BDD6
:1058A8006860E5E72B750023EEE71FB503AB0093AF
:1058B80000230A46194600F011FF039805B05DF869
:1058C80004FB00002DE9F04F93B00023079300F08C
:1058D8000303012B05460C46164610D0022B03D0B5
:1058E800002B3BD101073BD53146204601F006FC91
:1058F80018B1092013B0BDE8F08F0820FAE70207B5
:1059080023D5022305F008051D430CAB00930023A3
:105918000C22194630460C9400F008FF062D21D1C0
:10592800D4F83080D4E90A79B8F1000F0CBF4FF0F1
:10593800010A4FF0030A15F0080500F00981BAF1D1
:10594800010F40F0018100F05FF90F6A30460D2128
:10595800FFF7ABFF8742D4D10623D3E700F0A0FAC4
:105968000123CFE7304601F0E5FB81460028BBD094
:105978000CAA01463046FFF769FF9DF844B0039032
:1059880031465846FFF731FF0F2102900E903046FE
:10599800FFF78BFF039A20F0010808F1FF38109FEA
:1059A800974215D80027B8464FF0010AEB07C2D531
:1059B800BAF1020F98D00D213046079DFFF775FF09
:1059C800C4E90A79C4E90805C4F83080062091E7DB
:1059D8009DF845A008AB51460020FFF727FF09AB0B
:1059E800024651460020FFF721FF0AAB0246514606
:1059F8000020FFF71BFF0BA9FFF78AFE0C9B0899F5
:105A08000B444345024651D809990B444345C6D92E
:105A1800DDF82880B8F1000F01D00D9B98440B9B4E
:105A2800002B3BD0B8F1000F3FF45EAF15F0080231
:105A380004923DD0472222704E2262705522A270F5
:105A48004322E270462222714F2262715222A271D1
:105A58000022E271013BF8180023039309A9FFF71C
:105A680066FE0AA90590FFF762FE099F002F68D01D
:105A780042DDBBF1FF0F3BD00BF00703042B3FF6D1
:105A88006DAF01A252F823F0CB5A000865590008FF
:105A9800FD5A0008CB5A0008F55A0008B8F1000F63
:105AA8003FF422AF00274FF0020A7FE73A4676E735
:105AB800E279012A0CBF54F8202C04F1580207920D
:105AC800C8E704220F990BAB02FB1712584602993C
