:020000040800F2
:100000000000022091620008C5190008C719000805
:10001000C9190008CB190008CD190008000000001C
:10002000000000000000000000000000CF190008E0
:10003000D119000800000000D3190008D5190008E4
:10004000E1620008E1620008E1620008E162000884
:10005000E1620008E1620008E1620008E162000874
:10006000E1620008E1620008E1620008E162000864
:10007000E1620008E1620008E1620008E162000854
:10008000E1620008E1620008E1620008E162000844
:10009000E1620008E1620008E1620008E162000834
:1000A000E1620008E1620008E1620008E162000824
:1000B000E1620008E1620008E1620008E162000814
:1000C000E1620008E1620008E1620008E162000804
:1000D000E1620008E1620008E1620008E1620008F4
:1000E000E1620008E1620008E1620008E1620008E4
:1000F000E1620008E1620008E1620008E1620008D4
:10010000E1620008E1620008E1620008E1620008C3
:10011000E1620008E1620008E1620008E1620008B3
:10012000DD190008E1620008E1620008E1620008F0
:10013000E16200080000000000000000E162000829
:10014000E1620008E1620008E1620008E162000883
:10015000E1620008E1620008E1620008E162000873
:10016000E1620008E1620008E1620008E162000863
:10017000E1620008E16200080000000000000000E9
:08018000E1620008E1620008E1
:1001900010F8012B11F8013B012A28BF9A42F7D031
:1001A000D01A7047000000000000000000000000AE
:1001B00001F0FF01102A2BDB10F0070F08D010F818
:1001C000013B013A8B422DD010F0070F42B3F6D11C
:1001D000F0B441EA012141EA014122F007047FF035
:1001E00000070023F0E80256083C85EA010586EA8C
:1001F000010685FA47F5A3FA87F586FA47F6A5FAC8
:1002000087F68EB9EED1F0BC01F0FF0102F00702D3
:1002100032B110F8013B013A83EA010313B1F8D17E
:100220000020704701387047002D06BF354603385F
:10023000073815F0010F07D1013015F4807F02BF98
:10024000013015F4C03F0130F0BC0138704700BFE9
:10025000034613F8012B002AFBD1181A0138704706
:1002600081F0004102E000BF83F0004330B54FEA67
:1002700041044FEA430594EA050F08BF90EA020FD4
:100280001FBF54EA000C55EA020C7FEA645C7FEA67
:10029000655C00F0E2804FEA5454D4EB5555B8BF8A
:1002A0006D420CDD2C4480EA020281EA030382EAFB
:1002B000000083EA010180EA020281EA0303362D8D
:1002C00088BF30BD11F0004F4FEA01314FF4801C60
:1002D0004CEA113102D0404261EB410113F0004F72
:1002E0004FEA03334CEA133302D0524263EB430329
:1002F00094EA050F00F0A780A4F10104D5F1200EC7
:100300000DDB02FA0EFC22FA05F2801841F1000121
:1003100003FA0EF2801843FA05F359410EE0A5F1F5
:1003200020050EF1200E012A03FA0EFC28BF4CF026
:10033000020C43FA05F3C01851EBE37101F00045DC
:1003400007D54FF0000EDCF1000C7EEB00006EEBE9
:100350000101B1F5801F1BD3B1F5001F0CD3490873
:100360005FEA30004FEA3C0C04F101044FEA4452CA
:1003700012F5800F80F09A80BCF1004F08BF5FEA51
:10038000500C50F1000041EB045141EA050130BD31
:100390005FEA4C0C404141EB0101013C28BFB1F543
:1003A000801FE9D291F0000F04BF01460020B1FA8E
:1003B00081F308BF2033A3F10B03B3F120020CDA61
:1003C0000C3208DD02F1140CC2F10C0201FA0CF03F
:1003D00021FA02F10CE002F11402D8BFC2F1200CA4
:1003E00001FA02F120FA0CFCDCBF41EA0C0190405A
:1003F000E41AA2BF01EB0451294330BD6FEA0404A3
:100400001F3C1CDA0C340EDC04F11404C4F120028D
:1004100020FA04F001FA02F340EA030021FA04F39F
:1004200045EA030130BDC4F10C04C4F1200220FAF6
:1004300002F001FA04F340EA0300294630BD21FA34
:1004400004F0294630BD94F0000F83F4801306BFFA
:1004500081F480110134013D4EE77FEA645C18BFEE
:100460007FEA655C29D094EA050F08BF90EA020F85
:1004700005D054EA000C04BF1946104630BD91EA7D
:10048000030F1EBF0021002030BD5FEA545C05D180
:100490004000494128BF41F0004130BD14F58004BF
:1004A0003CBF01F5801130BD01F0004545F0FE4133
:1004B00041F470014FF0000030BD7FEA645C1ABF68
:1004C000194610467FEA655C1CBF0B46024650EA9F
:1004D000013406BF52EA033591EA030F41F40021CB
:1004E00030BD00BF90F0000F04BF0021704730B551
:1004F0004FF4806404F132044FF000054FF0000126
:1005000050E700BF90F0000F04BF0021704730B5E6
:100510004FF4806404F1320410F0004548BF4042BB
:100520004FF000013EE700BF42004FEAE2014FEA10
:1005300031014FEA02701FBF12F07F4393F07F4FEB
:1005400081F06051704732F07F4208BF704793F0EE
:100550007F4F04BF41F40021704730B54FF4607401
:1005600001F0004521F000411CE700BF50EA010204
:1005700008BF704730B54FF000050AE050EA0102AD
:1005800008BF704730B511F0004502D5404261EB1D
:1005900041014FF4806404F132045FEA915C3FF45E
:1005A000D8AE4FF003025FEADC0C18BF03325FEAFB
:1005B000DC0C18BF033202EBDC02C2F1200300FAAC
:1005C00003FC20FA02F001FA03FE40EA0E0021FAD1
:1005D00002F11444BDE600BF70B54FF0FF0C4CF4BF
:1005E000E06C1CEA11541DBF1CEA135594EA0C0F71
:1005F00095EA0C0F00F0DEF82C4481EA030621EAAC
:100600004C5123EA4C5350EA013518BF52EA0335E6
:1006100041F4801143F4801338D0A0FB02CE4FF098
:100620000005E1FB02E506F00042E0FB03E54FF0C8
:100630000006E1FB03569CF0000F18BF4EF0010EC0
:10064000A4F1FF04B6F5007F64F5407404D25FEABC
:100650004E0E6D4146EB060642EAC62141EA55516F
:100660004FEAC52040EA5E504FEACE2EB4F1FD0CB1
:1006700088BFBCF5E06F1ED8BEF1004F08BF5FEA2F
:10068000500E50F1000041EB045170BD06F00046E1
:1006900046EA010140EA020081EA0301B4EB5C048E
:1006A000C2BFD4EB0C0541EA045170BD41F4801186
:1006B0004FF0000E013C00F3AB8014F1360FDEBFAB
:1006C000002001F0004170BDC4F10004203C35DA87
:1006D0000C341BDC04F11404C4F1200500FA05F30A
:1006E00020FA04F001FA05F240EA020001F00042AB
:1006F00021F0004110EBD37021FA04F642EB060121
:100700005EEA430E08BF20EAD37070BDC4F10C044A
:10071000C4F1200500FA04F320FA05F001FA04F20E
:1007200040EA020001F0004110EBD37041F10001FA
:100730005EEA430E08BF20EAD37070BDC4F1200505
:1007400000FA05F24EEA020E20FA04F301FA05F26D
:1007500043EA020321FA04F001F0004121FA04F215
:1007600020EA020000EBD3705EEA430E08BF20EAE5
:10077000D37070BD94F0000F0FD101F0004640001F
:1007800041EB010111F4801F08BF013CF7D041EAA1
:10079000060195F0000F18BF704703F000465200A5
:1007A00043EB030313F4801F08BF013DF7D043EA76
:1007B0000603704794EA0C0F0CEA135518BF95EA2C
:1007C0000C0F0CD050EA410618BF52EA4306D1D1B3
:1007D00081EA030101F000414FF0000070BD50EAD2
:1007E000410606BF1046194652EA430619D094EA5C
:1007F0000C0F02D150EA013613D195EA0C0F05D146
:1008000052EA03361CBF104619460AD181EA030199
:1008100001F0004141F0FE4141F470014FF0000051
:1008200070BD41F0FE4141F4780170BD70B54FF0EC
:10083000FF0C4CF4E06C1CEA11541DBF1CEA13556C
:1008400094EA0C0F95EA0C0F00F0A7F8A4EB05044E
:1008500081EA030E52EA03354FEA013100F0888045
:100860004FEA03334FF0805545EA131343EA12630E
:100870004FEA022245EA111545EA10654FEA0026C3
:100880000EF000419D4208BF964244F1FD0404F57C
:10089000407402D25B084FEA3202B61A65EB0305D8
:1008A0005B084FEA32024FF480104FF4002CB6EB95
:1008B000020E75EB030E22BFB61A754640EA0C0015
:1008C0005B084FEA3202B6EB020E75EB030E22BF55
:1008D000B61A754640EA5C005B084FEA3202B6EB96
:1008E000020E75EB030E22BFB61A754640EA9C0055
:1008F0005B084FEA3202B6EB020E75EB030E22BF25
:10090000B61A754640EADC0055EA060E18D04FEAE2
:10091000051545EA16754FEA06164FEAC30343EA82
:1009200052734FEAC2025FEA1C1CC0D111F4801F4F
:100930000BD141EA00014FF000004FF0004CB6E748
:1009400011F4801F04BF01430020B4F1FD0C88BFE7
:10095000BCF5E06F3FF6AFAEB5EB030C04BFB6EBF2
:10096000020C5FEA500C50F1000041EB045170BDE5
:100970000EF0004E4EEA113114EB5C04C2BFD4EB12
:100980000C0541EA045170BD41F480114FF0000E96
:10099000013C90E645EA060E8DE60CEA135594EA12
:1009A0000C0F08BF95EA0C0F3FF43BAF94EA0C0F15
:1009B0000AD150EA01347FF434AF95EA0C0F7FF48A
:1009C00025AF104619462CE795EA0C0F06D152EADE
:1009D00003353FF4FDAE1046194622E750EA4106C2
:1009E00018BF52EA43067FF4C5AE50EA41047FF4D3
:1009F0000DAF52EA43057FF4EBAE12E74FF0FF3C38
:100A000006E000BF4FF0010C02E000BF4FF0010C08
:100A10004DF804CD4FEA410C7FEA6C5C4FEA430C81
:100A200018BF7FEA6C5C1BD001B050EA410C0CBFD0
:100A300052EA430C91EA030F02BF90EA020F002032
:100A4000704710F1000F91EA030F58BF994208BF99
:100A500090422CBFD8176FEAE37040F00100704756
:100A60004FEA410C7FEA6C5C02D150EA013C07D1AD
:100A70004FEA430C7FEA6C5CD6D152EA033CD3D0F8
:100A80005DF8040B704700BF8446104662468C46F2
:100A90001946634600E000BF01B5FFF7B7FF002825
:100AA00048BF10F1000F01BD4DF808EDFFF7F4FF4E
:100AB0000CBF012000205DF808FB00BF4DF808EDD9
:100AC000FFF7EAFF34BF012000205DF808FB00BFFC
:100AD0004DF808EDFFF7E0FF94BF012000205DF81E
:100AE00008FB00BF4DF808EDFFF7CEFF94BF0120D3
:100AF00000205DF808FB00BF4DF808EDFFF7C4FFCC
:100B000034BF012000205DF808FB00BF4FEA410C14
:100B10007FEA6C5C02D150EA013C0AD14FEA430CF7
:100B20007FEA6C5C02D152EA033C02D14FF0000034
:100B300070474FF0010070474FEA410212F5001272
:100B400015D211D56FF47873B3EB625212D94FEA14
:100B5000C12343F0004343EA505311F0004F23FAFE
:100B600002F018BF404270474FF00000704750EA53
:100B7000013005D111F0004008BF6FF00040704710
:100B80004FF00000704700BF53B94AB9002908BFB1
:100B900000281CBF4FF0FF314FF0FF3000F0E2B8EB
:100BA000ADF1080C6DE904CE08F03CFDDDF804E081
:100BB000DDE9022304B0704700F1340191E8380008
:100BC0009C46A6464CF8045D90E8FF0FE54600BD44
:100BD00090EC210B704700BF80EC210B704700BFE9
:100BE00090EC200B704700BF80EC200B704700BFDB
:100BF000D0EC200B704700BFC0EC200B704700BF4B
:100C0000F0EC0201F0EC0211F0EC0221F0EC023108
:100C1000F0EC0241F0EC0251F0EC0261F0EC0271F8
:100C2000F0EC0281F0EC0291F0EC02A1F0EC02B1E8
:100C3000F0EC02C1F0EC02D1F0EC02E1F0EC02F1D8
:100C4000704700BFE0EC0201E0EC0211E0EC022191
:100C5000E0EC0231E0EC0241E0EC0251E0EC026138
:100C6000E0EC0271E0EC0281E0EC0291E0EC02A128
:100C7000E0EC02B1E0EC02C1E0EC02D1E0EC02E118
:100C8000E0EC02F1704700BFB0FC0181B0FC0191C3
:100C9000B0FC01A1B0FC01B1704700BFA0FC018114
:100CA000A0FC0191A0FC01A1A0FC01B1704700BF14
:100CB000EC4600B52DE900502DE9FF1F4FF0000371
:100CC0002DE90C0001A908F067FFDDF840E012B043
:100CD000704700BFEC4600B52DE900502DE9FF1F1D
:100CE0004FF000032DE90C0001A908F091FFDDF899
:100CF00040E012B0704700BFEC4600B52DE900504F
:100D00002DE9FF1F4FF000032DE90C0001A908F0A9
:100D1000A1FFDDF840E012B0704700BFEC4600B51F
:100D20002DE900502DE9FF1F4FF000032DE90C00C5
:100D300001AB08F065FFDDF840E012B0704700BF7E
:100D4000EC4600B52DE900502DE9FF1F4FF00003E0
:100D50002DE90C0001AA08F0D7FFDDF840E012B041
:100D6000704700BF704700BF0348044B834202D066
:100D7000034B03B118477047E8010020E801002049
:100D8000000000000548064B1B1AD90F01EBA30118
:100D9000491002D0034B03B118477047E801002007
:100DA000E80100200000000010B5064C237843B98C
:100DB000FFF7DAFF044B13B10448AFF300800123BF
:100DC000237010BDE801002000000000E4A6000828
:100DD00008B5054B1BB105490548AFF30080BDE8D8
:100DE0000840FFF7CFBF00BF00000000EC0100206B
:100DF000E4A600082DE9F0438BB000240594069486
:100E000007940894099400944E4B1A6B42F0040224
:100E10001A631A6B02F004020092009A01941A6B92
:100E200042F080021A631A6B02F080020192019A6A
:100E300002941A6B42F001021A631A6B02F001026B
:100E40000292029A03941A6B42F002021A631A6B1E
:100E500002F002020392039A04941A6B42F0080211
:100E60001A631B6B03F008030493049B364F22465E
:100E70004FF48671384601F0D3FEDFF8D880224661
:100E800049F6D041404601F0CBFEDFF8CC90224637
:100E90004CF23301484601F0C3FE4FF46243059320
:100EA00003250695079405A9384601F045FD0595EB
:100EB0000695079405A9254801F03EFD4FF4867379
:100EC0000593012606960794089405A9384601F073
:100ED00033FD49F6D043059306960794089405A977
:100EE000404601F029FD202305930694079605A9A5
:100EF000384601F021FD4CF2330305930696079422
:100F0000089405A9484601F017FD43F604430593EC
:100F10000695079405A9484601F00EFD4FF40073AD
:100F200005930695079405A9404601F005FD0423A5
:100F300005930695079405A9054801F0FDFC0BB043
:100F4000BDE8F0830038024000080240001C024067
:100F5000000C0240000002400004024000B585B0D1
:100F6000002300930193029303932948294A0260C6
:100F70004FF480324260836001220261027680F881
:100F800020304FF08051C1624FF020618162C36018
:100F90000423C36180F83020426100F0EBFD40BBC8
:100FA0000023009301230193062302936946184806
:100FB00000F0FAFF00BB012300930223019369466E
:100FC000134800F0F1FFD0B90223009303230193EB
:100FD00069460F4800F0E8FFA0B9032300930423FB
:100FE000019369460A4800F0DFFF70B905B05DF86B
:100FF00004FB04F0DDF8D3E704F0DAF8DBE704F0F3
:10100000D7F8E1E704F0D4F8E7E704F0D1F8EDE72A
:10101000F40200200020014000B585B000230093B9
:101020000193029303931548154A02604FF48032EE
:10103000426083600361037680F82030C362114A06
:101040008262C3600122C26180F83030426100F0E8
:1010500091FD68B90A2300930123019300230293B1
:101060006946064800F0A0FF28B905B05DF804FB0A
:1010700004F09EF8EEE704F09BF8F6E7AC020020DF
:10108000002101400100000F00B585B0002300934E
:101090000193029303931548154A02604FF480327E
:1010A000426083600361037680F82030C362114A96
:1010B0008262C3600122C26180F83030426100F078
:1010C00059FD68B90B230093012301930023029378
:1010D0006946064800F068FF28B905B05DF804FBD2
:1010E00004F066F8EEE704F063F8F6E76402002027
:1010F000002201400100000F30B58DB0002307939E
:10110000089309930A930B930368424A934207D0CA
:10111000414A93423FD0414A93425BD00DB030BD2B
:101120000446002501953E4B5A6C42F480725A6485
:101130005A6C02F480720192019A02951A6B42F085
:1011400001021A631B6B03F001030293029B0F233E
:1011500007930323089307A9324801F0EDFB3248B7
:10116000324B036045608560C5604FF48063036166
:101170004FF4006343614FF400538361C56105621E
:10118000456201F0CFFD18B9274BA3639C63C5E707
:1011900004F00EF8F8E700210391214B5A6C42F459
:1011A00000725A645A6C02F400720392039A04911A
:1011B0001A6B42F004021A631B6B03F004030493DE
:1011C000049B112307930323089307A9184801F0F0
:1011D000B3FBA3E700210591114B5A6C42F48062E6
:1011E0005A645A6C02F480620592059A06911A6B51
:1011F00042F004021A631B6B03F004030693069B80
:10120000022307930323089307A9094801F094FBDD
:1012100084E700BF0020014000210140002201407E
:101220000038024000000240040200201064024026
:101230000008024000B583B000210191094B1A6BF0
:1012400042F480021A631B6B03F480030193019B39
:101250000A46382001F0FCFF382002F01DF803B0E8
:101260005DF804FB0038024008B50D480D4B0360E3
:101270004FF48273436000238360C3600361436162
:101280004FF400728261C3610362436283620A2386
:10129000C36202F02DF900B908BD03F089FFFBE736
:1012A0003C030020003C004000B589B000230393BC
:1012B00004930593069307930268154B9A4202D054
:1012C00009B05DF804FB0021019103F5FE331A6CAF
:1012D00042F400421A641A6C02F400420192019A2C
:1012E00002911A6B42F004021A631B6B03F00403B1
:1012F0000293029B4FF4E0530393022304930323CE
:1013000006930623079303A9024801F015FBD7E7CC
:10131000003C00400008024000B58DB024220021AE
:1013200003A806F0C1FB0023019302931148124A5F
:101330000260436083604FF6FF72C26003618361A5
:10134000012303930593099303A902F00BFF50B9FE
:1013500000230193029301A9064803F049FD28B92F
:101360000DB05DF804FB03F023FFF1E703F020FF6D
:10137000F6E700BFB40400200004004000B58DB0C3
:101380002422002103A806F08FFB0023019302937F
:101390001148124A02604360836044F26402C260F2
:1013A000036183610323039301230593099303A935
:1013B00002F0D8FE50B900230193029301A9064818
:1013C00003F016FD28B90DB05DF804FB03F0F0FE44
:1013D000F1E703F0EDFEF6E76C04002000080040A2
:1013E00000B587B000230293039304930593009301
:1013F00001931548154A0260A722426083607C224F
:10140000C2600361836102F045FD98B94FF48053D7
:10141000029302A90C4803F081F970B920230093CC
:10142000002301936946084803F0E2FC40B907B085
:101430005DF804FB03F0BCFEE8E703F0B9FEEDE75E
:1014400003F0B6FEF3E700BF24040020000C0040C8
:1014500082B00368104A934204D0B3F1804F0ED09B
:1014600002B07047002300930C4B5A6C42F001020B
:101470005A645B6C03F001030093009BF0E70023C8
:101480000193064B1A6C42F001021A641B6C03F0C4
:1014900001030193019BE3E7000001400038024093
:1014A00000B58BB000230593069307930893099327
:1014B0000368244A934205D0234A934222D00BB0BA
:1014C0005DF804FB00210191204B1A6C42F00202EE
:1014D0001A641A6C02F002020192019A02911A6BCC
:1014E00042F004021A631B6B03F004030293029B95
:1014F000C023059302230693099305A9144801F01C
:101500001BFADCE700210391104B1A6C42F0040235
:101510001A641A6C02F004020392039A04911A6B83
:1015200042F002021A631B6B03F002030493049B54
:10153000C023059302230693099305A9054801F0EA
:10154000FBF9BCE7000400400008004000380240FE
:10155000000802400004024084B00368184A934225
:1015600007D0184A934211D0174A93421BD004B0B7
:10157000704700230193154B1A6C42F008021A645D
:101580001B6C03F008030193019BF0E70023029317
:101590000E4B5A6C42F400325A645B6C03F4003315
:1015A0000293029BE3E700230393084B5A6C42F437
:1015B00080225A645B6C03F480230393039BD6E779
:1015C000000C004000440140004801400038024047
:1015D00000B58BB0002305930693079308930993F6
:1015E0000368374A93420BD0B3F1804F20D0354A7D
:1015F000934234D0344A934249D00BB05DF804FB97
:1016000000230193314B1A6B42F001021A631B6BEA
:1016100003F001030193019B4FF4807305930223B0
:1016200006930123099305A9294801F085F9E4E708
:1016300000230293254B1A6B42F001021A631B6BC5
:1016400003F001030293029B2023059302230693D8
:101650000123099305A91E4801F06EF9CDE7002387
:1016600003931A4B1A6B42F002021A631B6B03F0CE
:1016700002030393039B4FF48073059302230693A5
:101680000323099305A9134801F056F9B5E7002390
:1016900004930E4B1A6B42F002021A631B6B03F0A9
:1016A00002030493049B4FF40073059302230693F3
:1016B0000323099305A9074801F03EF99DE700BF00
:1016C0000000014000440140004801400038024051
:1016D000000002400004024010B592B000241094B3
:1016E000119409940A940B940C940D940E940F94F5
:1016F0002022214601A806F0D7F92348234B036096
:1017000001234360846040F24733C3600461446155
:10171000846102F073FC002829D1002310931193F7
:1017200010A9194803F064FB20BB60230993002231
:101730000A920B920C920D920E920F9209A91248E6
:1017400002F0A0FEC8B9002301930293039304930F
:1017500005934FF400520692089301A90A4803F03A
:10176000D3FB68B90848FFF733FF12B010BD03F090
:101770001FFDD2E703F01CFDD7E703F019FDE2E7F8
:1017800003F016FDEEE700BF440500200000014015
:1017900000B58BB000230893099301930293039340
:1017A000049305930693079317484FF08042026015
:1017B0004360836040F24732C2600361836102F09C
:1017C0001DFCC0B900230893099308A90E4803F033
:1017D0000FFB98B9602301930022029203920592B5
:1017E00001A9094802F04EFE58B90748FFF7F0FE7C
:1017F0000BB05DF804FB03F0DBFCE3E703F0D8FC7F
:10180000E8E703F0D5FCF0E7FC04002000B589B060
:101810000023019302930393049305930693079384
:101820001548164A0260436083604FF4D262C2607A
:101830000361836102F02EFBA0B90F4802F0DEFBCA
:1018400098B960230193002202920392059201A9A4
:10185000094802F017FE58B90748FFF7B9FE09B06A
:101860005DF804FB03F0A4FCE7E703F0A1FCE8E764
:1018700003F09EFCF0E700BFDC03002000440140C1
:1018800000B589B000230193029303930493059359
:10189000069307931548164A02604360836040F23E
:1018A0004732C2600361836102F0F4FAA0B90F48C5
:1018B00002F0A4FB98B960230193002202920392E4
:1018C000059201A9094802F0DDFD58B90748FFF764
:1018D0007FFE09B05DF804FB03F06AFCE7E703F064
:1018E00067FCE8E703F064FCF0E700BF9403002026
:1018F00000480140034AD2F8883043F47003C2F82C
:101900008830704700ED00E010B503460C4A0D49E1
:101910000D48006840B10C4800680344521A9342D5
:1019200006D8094A136010BD0748084C0460F2E766
:1019300006F060F90C2303604FF0FF30F3E700BFBF
:1019400000000220000400008C05002098090020FF
:101950000120704708B506F04DF9162303604FF0DB
:10196000FF3008BD08B54FF0FF31FFF7F3FFFEE78A
:1019700070B50C461646002506E0AFF30080214600
:1019800001F8010B01350C46B542F6DB304670BD5F
:1019900070B50C461646002504E014F8010BAFF3B1
:1019A00000800135B542F8DB304670BD4FF0FF30A6
:1019B00070474FF400534B60002070470120704780
:1019C00000207047FEE7FEE7FEE7FEE7FEE7704710
:1019D0007047704708B501F0C1FC08BD08B5024862
:1019E00001F0E8FA08BD00BF0402002082B0002127
:1019F00000910B4B5A6C42F480425A645A6C02F4C8
:101A000080420092009A01911A6C42F080521A644E
:101A10001B6C03F080530193019B02B0704700BF21
:101A20000038024010B504464F4B5A6822F4403249
:101A30005A605A6841680A435A600268536823F43E
:101A40008073536002685368016943EA012353605D
:101A50000268536823F040735360026853688168DA
:101A60000B4353600268936823F400639360026839
:101A70009368C1680B439360826A3C4B9A425BD087
:101A80000268936823F07063936002689368816AC8
:101A90000B4393600268936823F04053936002689D
:101AA0009368C16A0B4393602268936823F0020332
:101AB000936022689368217E43EA4103936094F81F
:101AC0002030002B49D0636A013B072B3FD82268A6
:101AD000536843F4006353602268536823F46043FF
:101AE000536021684B68626A013A43EA42334B60B3
:101AF0002268D36A23F47003D3622168CB6AE26957
:101B0000013A43EA0253CB622268936823F40073DC
:101B100093602268936894F8301043EA41239360FD
:101B20002268936823F480639360226893686169F4
:101B300043EA8123936010BD0268936823F07063C9
:101B400093600268936823F040539360ACE74FF4CE
:101B5000F561074804F0ECF9B9E72268536823F40B
:101B600000635360C4E700BF002301400100000F81
:101B700010A70008002800F0EE8010B504460368A6
:101B8000764A93420CD002F58072934208D002F557
:101B90008072934204D04FF4A171714804F0C8F9E7
:101BA000636843B1B3F5803F05D0B3F5003F02D081
:101BB000B3F5403F71D1A36843B1B3F1807F05D045
:101BC000B3F1007F02D0B3F1407F6CD12369012BC8
:101BD0006FD8237E012B72D8A36A7BB3B3F1807FC9
:101BE0002CD0B3F1007F29D0B3F1407F26D0B3F1E0
:101BF000806F23D0B3F1A06F20D0B3F1C06F1DD0A0
:101C0000B3F1E06F1AD0B3F1006F17D0B3F1106FDA
:101C100014D0B3F1206F11D0B3F1306F0ED0B3F107
:101C2000406F0BD0B3F1506F08D0B3F1606F05D0A7
:101C3000B3F1706F02D04B4A934246D1E36813B1BF
:101C4000B3F5006F47D1E369013B0F2B49D894F8F6
:101C50003030012B4BD86369022B4ED894F82030DA
:101C6000012B50D8A26A3F4B9A420AD0E36A43B193
:101C7000B3F1805F05D0B3F1005F02D0B3F1405FF4
:101C800047D1236C002B4AD0236C13F0100F4ED099
:101C90000120002384F83C3010BD40F2431130484D
:101CA00004F046F987E74FF4A2712D4804F040F99B
:101CB0008CE740F245112A4804F03AF989E74FF4DD
:101CC000A371274804F034F986E740F2471124480D
:101CD00004F02EF9B2E74FF4A471214804F028F97A
:101CE000B1E740F249111E4804F022F9AFE74FF482
:101CF000A5711B4804F01CF9ADE740F24B111848E0
:101D000004F016F9AAE74FF4A671154804F010F98B
:101D1000A8E74FF4A871124804F00AF9B1E7204689
:101D2000FFF7EAF90023636484F83C30ACE7236CE6
:101D300023F4885323F0020343F002032364204674
:101D4000FFF770FE00206064236C23F0030343F070
:101D5000010323649DE70120704700BF002001407C
:101D600010A700080100000F10B582B00446002340
:101D70000193037E012B25D8E36A43B1B3F1805F61
:101D800005D0B3F1005F02D0B3F1405F20D194F8E9
:101D90003C30012B00F09580012384F83C3023680F
:101DA0009A6812F0010F1FD19A6842F001029A60FE
:101DB000474B1B68474AA2FB03239B0C03EB4303DF
:101DC00001930EE040F2D221434804F0B1F8D3E78A
:101DD00040F2D321404804F0ABF8D8E7019B013B27
:101DE0000193019B002BF9D12268936813F0010F36
:101DF0005CD0236C23F4E06323F0010343F480738D
:101E00002364536813F4806F05D0236C23F440538C
:101E100043F480532364236C13F4805F1BD0636C02
:101E200023F006036364002384F83C306FF0220340
:101E300013602A4B5B6813F01F0F27D12368284AD1
:101E4000934211D002F58072934207D0254A934203
:101E500014D0002033E000236364E4E702F500724D
:101E6000526812F01F0FF1D19A6812F0405F2AD128
:101E70009A6842F080429A60002020E002F5807269
:101E8000526812F0100FEFD0002018E02368144AB7
:101E9000934201D0002012E09A6812F0405F14D102
:101EA0009A6842F080429A60002008E0236C43F078
:101EB00010032364636C43F001036364002002B0E9
:101EC00010BD0220FBE70020F9E70020F7E700BF84
:101ED0000400002083DE1B4310A7000800230140FC
:101EE000002001400022014070B504460D46036801
:101EF0009A6812F4806F03D09B6813F4807F19D125
:101F000001F038FA064623681A6812F0020F20D151
:101F1000B5F1FF3FF7D0B5B923681B6813F0020F86
:101F2000F1D1236C43F004032364002384F83C3094
:101F3000032032E0036C43F020030364002380F8A5
:101F40003C30012029E001F015FA801BA842DAD9C3
:101F5000E2E76FF012021A60236C43F4007323640B
:101F600023689A6812F0405F16D1207EB0B9DA6A11
:101F700012F4700F03D09B6813F4806F0DD1236CA3
:101F800023F480732364236C13F4805F05D1236CE6
:101F900043F00103236400E0002070BD0020FCE753
:101FA0000368D86C7047000030B583B005460C4616
:101FB000002301930B68122B4DD86368013B0F2B54
:101FC0004FD8A368072B52D895F83C30012B00F06E
:101FD000C580012385F83C302368092B4DD928683A
:101FE000C2689BB203EB43031E3B072101FA03F3D4
:101FF00022EA0303C3602868C268A168238803EB50
:1020000043031E3B99400A43C2606368062B49D8CC
:102010002868426B03EB8303053B1F2101FA03F39E
:1020200022EA030343632868426B636803EB83037C
:10203000053B218801FA03F3134343632A68484BA5
:102040009A425FD02A68464B9A4264D0002085F8B5
:102050003C0003B030BD40F28B61424803F068FFA2
:10206000ABE740F28C613F4803F062FFA9E740F222
:102070008D613C4803F05CFFA6E7286802699BB2CB
:1020800003EB4303072101FA03F322EA030303618D
:1020900028680269A168238803EB430399400A4337
:1020A0000261B2E70C2B16D82868026B03EB83039E
:1020B000233B1F2101FA03F322EA03030363286889
:1020C000026B636803EB8303233B218801FA03F36C
:1020D00013430363B2E72868C26A03EB8303413BFF
:1020E0001F2101FA03F322EA0303C3622868C26ACC
:1020F000636803EB8303413B218801FA03F3134335
:10210000C3629BE72368122B9CD1174A536843F4A0
:102110008003536096E72368103B012B96D8124A40
:10212000536843F4000353602368102B8ED10F4B88
:102130001B6802F1467202F52E3202F28332A2FBD4
:1021400003239B0C03EB83035B00019302E0019BE1
:10215000013B0193019B002BF9D177E7022078E73F
:102160000020014010A700080023014004000020C7
:10217000002800F05E8270B582B0044603680F2B21
:1021800039D8236813F0010F4DD063682BB1B3F534
:10219000803F02D0B3F5A02F32D1804B9B6803F073
:1021A0000C03042B36D07D4B9B6803F00C03082BEB
:1021B0002BD06368B3F5803F5FD0B3F5A02F62D01A
:1021C000764B1A6822F480321A601A6822F4802250
:1021D0001A606368002B60D001F0CCF805466F4BA5
:1021E0001B6813F4003F1ED101F0C4F8401B6428A3
:1021F000F5D9032024E2E621694803F099FEC0E7FF
:10220000EB21674803F094FEC7E7644B5B6813F467
:10221000800FCED0614B1B6813F4003F03D063687E
:10222000002B00F00882236813F0020F66D0E368E9
:10223000012B41D823691F2B44D8584B9B6813F0BE
:102240000C0F4AD0554B9B6803F00C03082B3FD072
:10225000E368002B77D0534B01221A6001F08AF813
:1022600005464E4B1B6813F0020F63D101F082F854
:10227000401B0228F5D90320E2E1484A136843F4E1
:1022800080331360A5E7454B1A6842F480221A6038
:102290001A6842F480321A609BE701F06BF8054639
:1022A0003E4B1B6813F4003FBDD001F063F8401BA8
:1022B0006428F5D90320C3E140F21D11384803F02A
:1022C00037FEB7E74FF48F71354803F031FEB4E7BE
:1022D000324B5B6813F4800FBAD1304B1B6813F09C
:1022E000020F03D0E368012B40F0A7812B4A13684B
:1022F00023F0F803216943EAC1031360236813F054
:10230000080F51D06369012B2FD863699BB3254B0C
:102310000122C3F8802E01F02DF805461F4B5B6F9C
:1023200013F0020F40D101F025F8401B0228F5D927
:10233000032085E1194A136823F0F803216943EA71
:10234000C1031360DAE7174B00221A6001F012F89C
:102350000546124B1B6813F0020FCFD001F00AF8AC
:10236000401B0228F5D903206AE14FF4AF710C48F5
:1023700003F0DEFDC9E70B4B0022C3F8802E00F00E
:10238000F9FF0546054B5B6F13F0020F0CD000F010
:10239000F1FF401B0228F5D9032051E1003802402B
:1023A00048A7000800004742236813F0040F7CD0C0
:1023B000A368012B01D9052B38D1A54B1B6C13F059
:1023C000805F39D100230193A14B1A6C42F08052F7
:1023D0001A641B6C03F080530193019B01259D4BF4
:1023E0001B6813F4807F29D0A368012B3AD0052BFA
:1023F0003ED0974B1A6F22F001021A671A6F22F033
:1024000004021A67A368002B3CD000F0B3FF064615
:102410008F4B1B6F13F0020F45D100F0ABFF801BF9
:1024200041F288339842F3D9032009E14FF4C57192
:10243000894803F07DFDC0E70025D0E7854A136891
:1024400043F48073136000F095FF0646814B1B68D0
:1024500013F4807FC8D100F08DFF801B0228F5D9CE
:102460000320EDE07A4A136F43F001031367C9E7D5
:10247000774B1A6F42F004021A671A6F42F001029A
:102480001A67BFE700F076FF0646714B1B6F13F02B
:10249000020F08D000F06EFF801B41F28833984293
:1024A000F3D90320CCE0002D3CD1A369022B3FD807
:1024B000A369002B00F0C380654A926802F00C0209
:1024C000082A00F09180022B7AD1E36913B1B3F5A9
:1024D000800F33D1236A023B3D2B35D8636A323BF0
:1024E000B3F5BF7F36D8A26A082A39D84FF4AA7349
:1024F000D34013F0010F33D0E36A023B0D2B35D8E4
:10250000564B00221A6600F035FF0546504B1B68FB
:1025100013F0007F30D000F02DFF401B0228F5D9CA
:1025200003208DE04A4A136C23F080531364BCE708
:1025300040F2CD11484803F0FBFCB9E74FF4EB71D2
:10254000454803F0F5FCC5E740F2D711424803F0D7
:10255000EFFCC3E74FF4EC713F4803F0E9FCC2E73E
:1025600040F2D9113C4803F0E3FCC5E74FF4ED71AC
:10257000394803F0DDFCC3E7E369226A1343626A6A
:1025800043EA8213A26A5208013A43EA0243E26A2A
:1025900043EA02632E4A5360304B01221A6600F070
:1025A000E9FE04462A4B1B6813F0007F06D100F0B9
:1025B000E1FE001B0228F5D9032041E000203FE0A6
:1025C000264B00221A6600F0D5FE0446204B1B68FD
:1025D00013F0007F06D000F0CDFE001B0228F5D9D5
:1025E00003202DE000202BE0012B2BD0184B5B6843
:1025F00003F48001E269914226D103F03F02216A8F
:102600008A4223D1616A47F6C0721A40B2EB811F39
:1026100026D103F44031A26A5208013AB1EB024FCD
:1026200020D103F07063E26AB3EB026F1CD100208B
:1026300006E001207047012002E0012000E00020B8
:1026400002B070BD0120FBE70120F9E70120F7E7A8
:10265000003802400070004048A7000800004742D0
:102660000120EDE70120EBE70120E9E708B5264B63
:102670009B6803F00C03042B41D0082B41D1224B63
:102680005A6802F03F025B6813F4800F12D01E4BB1
:102690005968C1F388111D480023A1FB0001FEF712
:1026A00073FA194B5B68C3F3014301335B00B0FB62
:1026B000F3F008BD144B5868C0F388104FEA401C73
:1026C000BCEB000C6EEB0E0E4FEA8E1343EA9C63DC
:1026D0004FEA8C11B1EB0C0163EB0E03DB0043EA14
:1026E0005173C90011EB000C43F100039902002360
:1026F0004FEA8C2041EA9C51FEF746FAD1E70348A5
:10270000D7E70348D5E700BF0038024040787D0195
:102710000024F400002800F0FA8070B50D4604464D
:102720000368013B0E2B32D8072D36D87C4B1B6833
:1027300003F00703AB4208D2EBB2794A1370136877
:1027400003F00703AB4240F0E480236813F0020F6C
:102750003ED013F0040F04D0724A936843F4E05360
:102760009360236813F0080F04D06E4A936843F413
:1027700060439360A36823B3C02B22D016D8A02B4C
:102780001FD010D8802B1CD0902B1AD014E040F210
:102790005A21654803F0CCFBC6E740F25B21624852
:1027A00003F0C6FBC2E7B02B0BD005E0E02B08D04E
:1027B000F02B06D0D02B04D040F27E215A4803F0F3
:1027C000B7FB584A936823F0F003A1680B4393606A
:1027D000236813F0010F3CD06368032B25D863688E
:1027E000012B28D09A1E012A2CD94E4A126812F0C9
:1027F000020F00F090804B498A6822F003021343D5
:102800008B6000F0B7FD0646464B9B6803F00C0357
:102810006268B3EB820F1CD000F0ACFD801B41F26C
:1028200088339842F0D9032064E040F285213E4885
:1028300003F07EFBD3E73B4A126812F4003FDAD183
:10284000012057E0374A126812F0007FD3D10120EF
:1028500050E0334B1B6803F00703AB4207D9EAB2E1
:102860002F4B1A701B6803F00703AB4255D1236846
:1028700013F0040F14D0E3685BB1B3F5805F08D0A8
:10288000B3F5A05F05D0B3F5C05F02D0B3F5E05F4C
:1028900031D1244A936823F4E053E1680B439360F9
:1028A000236813F0080F15D023695BB1B3F5805F7F
:1028B00008D0B3F5A05F05D0B3F5C05F02D0B3F583
:1028C000E05F1ED1174A936823F46043216943EA0D
:1028D000C1039360FFF7CAFE124B9B68C3F3031357
:1028E000124AD35CD840124B1860124B186800F0A3
:1028F000F5FC002070BD40F2C3210B4803F018FB2B
:10290000C7E740F2CA21084803F012FBDAE70120CA
:1029100070470120EEE70120ECE70120EAE700BF65
:10292000003C02400038024048A7000800A7000809
:10293000040000200C0000202DE9F04182B0074681
:102940000E46A84B984223D003F5806398421FD0CF
:1029500003F5806398421BD003F58063984217D03B
:1029600003F58063984213D003F5806398420FD03B
:1029700003F5806398420BD003F58063984207D03B
:1029800003F58063984203D0AC21974803F0D0FA56
:1029900033689AB212B1B3F5803F03D3AD219248A8
:1029A00003F0C6FA7368B3F5041F1BD00DD8B3F556
:1029B000881F17D005D8032B14D9113B012B11D92F
:1029C0000CE0B3F5901F0DD008E0B3F5441F09D01B
:1029D000B3F5481F06D0B3F5081F03D0AE218248D7
:1029E00003F0A6FA00247AE0F368032B13D8BA6840
:1029F000610003238B4022EA0302F3688B401343F8
:102A0000BB607A6822EA05027368C3F30013A3402F
:102A100013437B6074E0C021734803F089FAE6E752
:102A2000D121714803F084FA72E033694BB1013B64
:102A30000E2B17D844F6FF3222FA03F313F0010FDE
:102A400010D0E208083257F8220004F0070189008C
:102A50000F238B4020EA030033698B40034347F880
:102A6000223065E0DE21604803F062FAE9E70723DF
:102A700000E000238B40034302325C4941F82230DE
:102A80005B4B9A686FEA080322EA0801706810F449
:102A9000801F01D048EA0201554A9160D26803EADA
:102AA0000201706810F4001F01D048EA0201504A88
:102AB000D160526803EA0201706810F4003F01D04F
:102AC00048EA02014A4A516012681340716811F4E1
:102AD000803F01D048EA0203454A136001340F2CBD
:102AE0007DD80125A540336803EA050835EA0303CC
:102AF000F4D1736803F00303013B012B7FF674AF3D
:102B0000736803F00303032B0CD0B368022B87D840
:102B1000FA68610003238B4022EA0302B3688B400A
:102B20001343FB60736803F00303022B3FF47DAF94
:102B30003A68610003238B4022EA0302736803F0C2
:102B400003038B4013433B60736813F4403FC5D0CD
:102B500000230193274B5A6C42F480425A645B6C09
:102B600003F480430193019BA208911C1F4B53F86F
:102B7000210004F0030189000F238B4020EA0300A9
:102B8000184B9F423FF475AF03F580639F421AD004
:102B900003F580639F4218D003F580639F4216D0EF
:102BA00003F580639F4214D003F580639F4212D0E7
:102BB00003F580639F4210D003F580639F423FF48A
:102BC00056AF082356E7012354E7022352E70323B5
:102BD00050E704234EE705234CE706234AE702B0FB
:102BE000BDE8F0810000024080A7000800380140E5
:102BF000003C01400038024038B504460D4621B182
:102C000023691D4207D0012038BD4FF4BE7103482F
:102C100003F08EF9F4E70020F6E700BF80A7000874
:102C200070B5054614460E4621B1012C08D86CB18A
:102C3000AE6170BD40F29D11064803F079F9F4E7EA
:102C40004FF4CF71034803F073F9F0E73604AE6137
:102C5000EFE700BF80A7000810B40368D9B21039AD
:102C60000A4AA2FB01421209094CA25CC2655F2913
:102C700007D96FF3090304338365806D5DF8044B56
:102C800070476FF309038365F7E700BFABAAAAAAF1
:102C9000D0A80008836A826992B9012B0AD0022B5E
:102CA00002D00BB100207047C36A13F0807F28D197
:102CB00000207047C36AB3F1C07F24D00020704762
:102CC000B2F5005F09D0022B25D9032B25D1C36AA9
:102CD00013F0807F23D100207047032B03D8DFE857
:102CE00003F01404140A00207047C36A13F0807FB5
:102CF0000DD100207047C36AB3F1C07F09D0002016
:102D00007047012070470120704701207047012063
:102D10007047012070470120704700207047012054
:102D20007047000070B5044600F024FB002C00F052
:102D30003E8105462368954A934231D0183293422A
:102D40002ED0183293422BD01832934228D018320A
:102D5000934225D01832934222D0183293421FD08A
:102D6000183293421CD002F55672934218D0183292
:102D7000934215D01832934212D0183293420FD09A
:102D8000183293420CD01832934209D01832934231
:102D900006D01832934203D0B7217D4803F0C8F81B
:102DA0006368A3B1B3F1007F11D0B3F1806F0ED08F
:102DB000B3F1C06F0BD0B3F1006F08D0B3F1206F47
:102DC00005D0B3F1406F02D0B3F1606F6DD1A3684D
:102DD0001BB1402B01D0802B6CD1E368B3F5007F91
:102DE00001D0002B6BD12369B3F5806F01D0002B8C
:102DF0006AD163692BB1B3F5006F02D0B3F5805F80
:102E000067D1A3692BB1B3F5005F02D0B3F5804F52
:102E100064D1E36923B1B3F5807F01D0202B62D167
:102E2000236A43B1B3F5803F05D0B3F5003F02D02C
:102E3000B3F5403F5CD1636A0BB1042B5DD1636A8B
:102E4000C3B1A36A032B5DD8E36A43B1B3F5000FA6
:102E500005D0B3F1807F02D0B3F1C07F57D1236B8F
:102E600043B1B3F5001F05D0B3F5800F02D0B3F521
:102E7000C00F51D1022384F83530002384F8343058
:102E80002268136823F00103136023681A6812F0A4
:102E9000010F46D000F06EFA401B0528F5D920231B
:102EA0006365032084F8350070BDB821384803F00D
:102EB0003FF88CE7B921364803F03AF88DE7BA219C
:102EC000334803F035F88EE7BB21314803F030F882
:102ED0008FE7BC212E4803F02BF892E7BD212C4848
:102EE00003F026F895E7BE21294803F021F897E77B
:102EF000BF21274803F01CF89DE7C021244803F0B8
:102F000017F89CE7C521224803F012F89CE7C62178
:102F10001F4803F00DF8A2E7C7211D4803F008F889
:102F2000A8E71A681B4911406268A0680243E0687C
:102F300002432069024360690243A0690243E069D9
:102F40000243206A02430A43616A042924D01A60BA
:102F50002668756925F00705636A1D43042B07D1B0
:102F6000A36A1D43E36A1BB12046FFF793FEC0B975
:102F700075612046FFF770FEE26D3F23934083604A
:102F800000206065012384F835308DE71060024031
:102F9000B8A700083F8010F0E16A206B01430A43A4
:102FA000D5E740236365012084F835007CE70120E4
:102FB0007AE700BFF0B583B0044600230193724B5B
:102FC0001D68724BA3FB0535AD0A876D3E68C26D67
:102FD00008239340334210D003681A6812F0040F9C
:102FE0000BD01A6822F004021A60C26D08239340C5
:102FF000BB60436D43F001034365E26D01239340E1
:10300000334209D02268526912F0800F04D0BB60AD
:10301000636D43F002036365E26D04239340334222
:1030200009D02268126812F0020F04D0BB60636DF1
:1030300043F004036365E26D10239340334224D0D0
:103040002268126812F0080F1FD0BB6023681A684C
:1030500012F4802F0DD01B6813F4002F04D1236CC1
:103060009BB12046984710E0A36C73B12046984767
:103070000BE01A6812F4807F03D11A6822F008026C
:103080001A60236C0BB120469847E26D20239340D1
:10309000334255D02268126812F0100F50D0BB6036
:1030A00094F83530DBB2052B0ED023681A6812F481
:1030B000802F33D01B6813F4002F2AD1636C002BB0
:1030C0003ED0204698473BE02268136823F0160361
:1030D00013602268536923F080035361236CA3B10A
:1030E0002268136823F008031360E26D3F239340C6
:1030F000BB60012384F83530002384F83430236D1D
:10310000002B3FD0204698473CE0A36C002BE7D132
:10311000EBE7E36BA3B12046984711E01A6812F47D
:10312000807F09D11A6822F010021A60012384F806
:103130003530002384F83430E36B0BB120469847D8
:10314000636DFBB1636D13F0010F17D0052384F895
:1031500035302268136823F001031360019B0133AB
:103160000193AB4204D823681B6813F0010FF5D11B
:10317000012384F83530002384F83430E36C0BB13C
:103180002046984703B0F0BD04000020B5814E1BD7
:10319000002807DB00F01F02400901239340024A88
:1031A00042F82030704700BF00E100E0002808DB53
:1031B0000901C9B200F1604000F5614080F80013D8
:1031C000704700F00F000901C9B2014B1954704754
:1031D00014ED00E000B500F00700C0F1070CBCF1F1
:1031E000040F28BF4FF0040C031D062B0FD9C31E7C
:1031F0004FF0FF3E0EFA0CF021EA000199400EFA62
:1032000003FE22EA0E0241EA02005DF804FB0023FD
:10321000EEE7000010B50446C31E042B0FD80A4A7F
:10322000D36823F4E0631B041B0C240204F4E06461
:10323000234343F0BF6343F40033D36010BD9021B8
:10324000024802F075FEEAE700ED00E0F0A7000892
:1032500070B506460C4615460F2A0ED80F2C11D80D
:103260000B4BD8682A462146C0F30220FFF7B2FF75
:1032700001463046FFF79AFF70BDA821054802F0CD
:1032800057FEEBE7A921034802F052FEE8E700BF32
:1032900000ED00E0F0A7000810B5041E03DB204697
:1032A000FFF776FF10BDBC21014802F041FEF6E7B2
:1032B000F0A700080138B0F1807F0BD24FF0E02377
:1032C0005861054AF02182F82310002098610722F6
:1032D0001A6170470120704700ED00E010B5044608
:1032E0000E4B1A784FF47A73B3FBF2F30C4A106862
:1032F000B0FBF3F0FFF7DEFF68B90F2C01D9012016
:103300000AE0002221464FF0FF30FFF7A1FF054BF6
:103310001C60002000E0012010BD00BF080000205C
:10332000040000200C00002008B50B4B1A6842F482
:1033300000721A601A6842F480621A601A6842F4D5
:1033400080721A600320FFF765FF0F20FFF7C6FFAA
:10335000FEF74CFB002008BD003C0240034A116808
:10336000034B1B780B441360704700BF900500208F
:1033700008000020014B1868704700BF900500202E
:1033800038B50446FFF7F6FF0546B4F1FF3F02D01B
:10339000044B1B781C44FFF7EDFF401BA042FAD3FF
:1033A00038BD00BF080000202DE9F04782B0054677
:1033B000884617461E46FFF7DDFF0A9B1B1A03EBE4
:1033C0000609FFF7D7FF8246284B1B68C3F3CB33B0
:1033D00009FB03F301932B689C6838EA04040CBFD3
:1033E00001230023BB423DD0B6F1FF3FF3D0FFF7EE
:1033F000C1FFA0EB0A00484507D2019A02B14A4634
:10340000019B013B01939146E5E72A68536823F04D
:10341000E00353606B68B3F5827F0BD0AB6AB3F502
:10342000005F14D0012385F85130002385F8503017
:10343000032018E0AB68B3F5004F02D0B3F5806FFE
:10344000ECD12A68136823F040031360E6E72A688A
:10345000136823F4005313602A68136843F400537D
:103460001360DFE7002002B0BDE8F0870400002011
:1034700070B584B004460D46164600920B460122F4
:103480000221FFF791FFD0B9174B1B68174AA2FB27
:1034900003235B0D4FF47A7202FB03F3039363681B
:1034A000B3F5827F11D0039B3BB1039B013B039398
:1034B00023689B6813F0800FF5D104B070BD636D75
:1034C00043F0200363650320F7E700962B460022B4
:1034D00080212046FFF768FF0028EED0636D43F09F
:1034E000200363650320E8E704000020819F5E1647
:1034F000002800F0228110B504460368904A9342E8
:103500000CD0A2F57842934208D002F58062934233
:1035100004D04FF4A0718B4802F00AFD636813B128
:10352000B3F5827F26D1A3682BB1B3F5806F02D0AB
:10353000B3F5004F24D1E368B3F5006F00D02BBB87
:10354000A369B3F5007F03D013B1B3F5802F23D166
:10355000E3699BB3182B25D8082B05D37A4A22FAA6
:1035600003F313F0010F29D140F24511754802F021
:10357000DFFC23E040F24111724802F0D9FCD2E7AF
:103580004FF4A1716F4802F0D3FCD4E740F243112D
:103590006C4802F0CDFCD3E74FF4A271694802F009
:1035A000C7FCD5E7382BDFD8202BDDD3203B4FF0ED
:1035B000013222FA03F313F0010FD5D0236A0BB1C5
:1035C000802B14D1636A0BB1102B16D1636A002BC8
:1035D00045D123690BB1022B15D16369012B18D892
:1035E0006368B3F5827F1AD00023E36158E04FF49B
:1035F000A371544802F09CFCE4E740F247115148A3
:1036000002F096FCE2E74FF4A5714E4802F090FC00
:10361000E3E740F24B114B4802F08AFCE0E7E36934
:10362000002B3DD0182B0DD8082B05D3464A22FA83
:1036300003F313F0010F33D140F24F11414802F070
:1036400077FC2DE0382BF7D8202BF5D3203B4FF01B
:10365000013222FA03F313F0010F21D1ECE7E36901
:10366000DBB1182B0DD8082B05D3374A22FA03F308
:1036700013F0010F11D140F25911324802F058FCF9
:103680000BE0382BF7D8202BF5D3203B4FF001323D
:1036900022FA03F313F0010FEDD0002323616361DD
:1036A0000023A36294F85130002B40D0022384F809
:1036B00051302268136823F040031360636803F4F9
:1036C0008273A26802F404421343E26802F40062C7
:1036D0001343226902F002021343626902F00102FD
:1036E0001343A26902F400721343E26902F0380244
:1036F0001343226A02F080021343A26A02F40052CA
:10370000216813430B60638B03F00403626A02F0C9
:103710001002216813434B602268D36923F40063CD
:10372000D36100206065012384F8513010BD84F816
:1037300050302046FDF7B8FDB8E70120704700BFC4
:103740000030014028A80008000101012DE9F043E4
:1037500083B00446884691461F460A9D8368002B25
:1037600059D1FFF707FE064694F85130DBB2626884
:10377000012B0AD0B2F5827F40F00B81A268002AAB
:1037800040F00B81042B40F00A81B8F1000F00F0EB
:103790000881B9F1000F00F00681002F00F00581CB
:1037A00094F85030012B00F00281012384F850304E
:1037B00094F85130DBB2042B02D0052384F8513049
:1037C00000236365C4F83890E787A787C4F8308082
:1037D000E786A7862364636423681A6812F0400FA3
:1037E00003D11A6842F040021A60E368B3F5006F33
:1037F00017D063680BB1012F0BD1226B23681278AD
:103800001A73236B01332363E38E9BB2013B9BB29C
:10381000E386012777E040F27E41664802F088FBAC
:103820009FE763680BB1012F0BD1226B23681288CD
:10383000DA60236B02332363E38E9BB2013B9BB2BE
:10384000E38601271BE023689A6812F0010F0ED06F
:10385000E28F92B25AB1DA68A36B1A80A36B02337B
:10386000A363E38F9BB2013B9BB2E3870127FFF782
:1038700081FD801BA84202D3B5F1FF3F1ED1E38E2C
:103880009BB21BB9E38F9BB2002B62D023689A686E
:1038900012F0020FD7D0E28E92B2002AD3D0002FBE
:1038A000D1D0226B1288DA60236B02332363E38E5C
:1038B0009BB2013B9BB2E3860027C4E7012384F857
:1038C0005130002384F85030032063E023689A6865
:1038D00012F0010F0ED0E28F92B25AB1DA68A36BE8
:1038E0001A70A36B0133A363E38F9BB2013B9BB2BE
:1038F000E3870127FFF73EFD831BAB4202D3B5F1FF
:10390000FF3F1ED1EDB1E38E9BB213B9E38F9BB2A3
:10391000FBB123689A6812F0020FD7D0E28E92B200
:10392000002AD3D0002FD1D0226B12781A73236BC8
:1039300001332363E38E9BB2013B9BB2E3860027F6
:10394000C4E7012384F85130002384F85030032069
:1039500020E0324629462046FFF78AFD90B9A36849
:1039600033B901932368DA6801929B680193019B44
:10397000012384F85130002384F85030636D4BB13B
:10398000012007E020236365002384F850300120E4
:1039900000E0022003B0BDE8F0830220FAE7022035
:1039A000F8E70120F6E70120F4E70120F2E7022022
:1039B000F0E700BF28A8000810B4036A046A24F0E6
:1039C00001040462846924F0F00C4CEA021223F032
:1039D0000A030B43826103625DF8044B704710B425
:1039E000036A046A24F010040462846924F4704CAD
:1039F0004CEA023223F0A00343EA0113826103621E
:103A00005DF8044B7047836823F070030B4343F069
:103A100007038360704700002DE9F04104460D461E
:103A2000036A026A22F0010202624768826922F098
:103A30007302096841EA020823F00203AE681E43DC
:103A4000204B984203D003F58063984209D1EB687C
:103A50000BB1082B24D126F00806EB68334323F082
:103A60000406184B9C4203D003F580639C420FD19F
:103A7000AB69B3F5007F00D0C3B96B69B3F5807F44
:103A800000D0CBB927F440776B693B43AF691F4344
:103A90006760C4F818806B6863632662BDE8F081D4
:103AA00041F6D021084802F043FAD4E741F6DD217F
:103AB000054802F03DFAE0E741F6DE21024802F057
:103AC00037FADFE70000014060A800082DE9F04167
:103AD00004460E46056A036A23F48073036247684E
:103AE000C36923F073030A6842EA030825F40075EA
:103AF0008B6845EA0325224B984203D003F5806387
:103B000098420AD1F3680BB1082B27D125F4006540
:103B1000F36845EA032525F48065194B9C4203D0E0
:103B200003F580639C4211D1B369B3F5007F00D0E7
:103B3000D3B97369B3F5807F00D0DBB927F4405760
:103B4000736947EA0317B36947EA03176760C4F864
:103B50001C807368E3632562BDE8F08141F667313C
:103B6000084802F0E5F9D1E741F67431054802F062
:103B7000DFF9DEE741F67531024802F0D9F9DDE7F9
:103B80000000014060A800082DE9F04104460D4600
:103B9000066A036A23F480530362D0F80480C7697D
:103BA00027F4E6470B6847EA032726F400568B689C
:103BB00046EA03360F4B984203D003F580639842E0
:103BC00009D16B69B3F5807F00D063B928F48048D0
:103BD0006B6948EA8318C4F80480E7616B68236462
:103BE0002662BDE8F08141F6B431034802F0A0F945
:103BF000ECE700BF0000014060A8000810B50446D3
:103C000003683E4A934237D0B3F1804F34D0A2F5D7
:103C10007C42934230D002F5806293422CD002F570
:103C20008062934228D002F58062934224D002F54C
:103C30008062934220D002F5704293421CD002F57C
:103C40007052934218D002F58062934214D002F56C
:103C50008062934210D0A2F5983293420CD002F5C4
:103C60008062934208D002F58062934204D04FF400
:103C7000E871234802F05CF994F83D30DBB2012B87
:103C800037D1022384F83D302268D36843F0010322
:103C9000D3602368194A934220D0B3F1804F1DD0DE
:103CA000A2F57C42934219D002F58062934215D06E
:103CB00002F58062934211D002F5784293420DD012
:103CC00002F57052934209D0A2F59432934205D086
:103CD0001A6842F001021A6000200BE09A6802F0B4
:103CE0000702062A07D01A6842F001021A60002073
:103CF00000E0012010BD0020FCE700BF00000140F3
:103D000060A8000810B5044603682A4A934237D0D9
:103D1000B3F1804F34D0A2F57C42934230D002F50B
:103D2000806293422CD002F58062934228D002F543
:103D30008062934224D002F58062934220D002F543
:103D4000704293421CD002F57052934218D002F593
:103D50008062934214D002F58062934210D0A2F5A3
:103D6000983293420CD002F58062934208D002F55B
:103D70008062934204D04FF4FC710F4802F0D8F8EF
:103D80002268D36823F00103D3602368196A41F2E3
:103D90001112114208D1196A40F24442114203D172
:103DA0001A6822F001021A60012384F83D300020D5
:103DB00010BD00BF0000014060A800080368344A3D
:103DC000904212D0B0F1804F0FD0A2F57C429042C9
:103DD0000BD002F58062904207D002F580629042DB
:103DE00003D002F57842904203D123F070034A6871
:103DF0001343274A90422AD0B0F1804F27D0A2F532
:103E00007C42904223D002F5806290421FD002F59E
:103E1000806290421BD002F57842904217D002F5A2
:103E20007052904213D002F5806290420FD002F59A
:103E3000806290420BD0A2F59832904207D002F5F2
:103E40008062904203D002F58062904203D123F455
:103E50004073CA68134323F080034A691343036025
:103E60008B68C3620B688362094B984203D003F5E9
:103E70008063984201D10B690363012343610369A5
:103E800013F0010F03D0036923F0010303617047AE
:103E900000000140002800F0A98010B50446036826
:103EA000534A934237D0B3F1804F34D0A2F57C42CD
:103EB000934230D002F5806293422CD002F58062AA
:103EC000934228D002F58062934224D002F58062AA
:103ED000934220D002F5704293421CD002F57052FA
:103EE000934218D002F58062934214D002F58062AA
:103EF000934210D0A2F5983293420CD002F5806222
:103F0000934208D002F58062934204D040F213112C
:103F1000384802F00DF8A3683BB1102B05D0202BD8
:103F200003D0402B01D0602B17D123692BB1B3F5FF
:103F3000807F02D0B3F5007F15D12368B3F1804FA5
:103F400017D02D4A934214D0E368013B4FF6FE721E
:103F500093428CBF002301230FE04FF48A71254860
:103F600001F0E6FFE1E740F21511224801F0E0FF21
:103F7000E3E7E368003B18BF01232BB3A3690BB150
:103F8000802B27D194F83D3053B3022384F83D3081
:103F9000214651F8040BFFF711FF012384F8463046
:103FA00084F83E3084F83F3084F8403084F8413063
:103FB00084F8423084F8433084F8443084F8453043
:103FC00084F83D30002010BD4FF48B71094801F09A
:103FD000AFFFD3E740F21711064801F0A9FFD1E780
:103FE00084F83C302046FDF7B7FACEE70120704751
:103FF0000000014060A80008000C0040002800F00C
:10400000A98010B504460368534A934237D0B3F1F0
:10401000804F34D0A2F57C42934230D002F58062CA
:1040200093422CD002F58062934228D002F5806240
:10403000934224D002F58062934220D002F5704270
:1040400093421CD002F57052934218D002F5806260
:10405000934214D002F58062934210D0A2F59832B8
:1040600093420CD002F58062934208D002F5806240
:10407000934204D040F22C51384801F059FFA36814
:104080003BB1102B05D0202B03D0402B01D0602B4F
:1040900017D123692BB1B3F5807F02D0B3F5007F30
:1040A00015D12368B3F1804F17D02D4A934214D015
:1040B000E368013B4FF6FE7293428CBF002301235D
:1040C0000FE040F22D51254801F032FFE1E740F2C8
:1040D0002E51224801F02CFFE3E7E368003B18BFB4
:1040E00001232BB3A3690BB1802B27D194F83D306A
:1040F00053B3022384F83D30214651F8040BFFF7F7
:104100005DFE012384F8463084F83E3084F83F3069
:1041100084F8403084F8413084F8423084F84330E9
:1041200084F8443084F8453084F83D30002010BDD8
:1041300040F22F51094801F0FBFED3E74FF4A6618E
:10414000064801F0F5FED1E784F83C302046FDF743
:104150007FF9CEE7012070470000014060A8000809
:10416000000C0040002800F02581F8B50C460546FB
:104170000368914A93421FD0B3F1804F1CD0A2F53F
:104180007C42934218D002F58062934214D002F52B
:104190008062934210D002F5784293420CD002F52F
:1041A0007052934208D0A2F59432934204D040F664
:1041B000D831824801F0BCFEAB683BB1102B05D072
:1041C000202B03D0402B01D0602B4DD12B692BB17C
:1041D000B3F5807F02D0B3F5007F4BD1AB690BB153
:1041E000802B4DD12368013B022B4FD8A368013BA4
:1041F000022B51D8A369013B022B53D863680BB142
:10420000022B55D163690BB1022B57D1E3684BB137
:10421000043B082B58D840F2111222FA03F313F092
:10422000010F51D0E3694BB1043B082B52D840F247
:10423000111222FA03F313F0010F4BD023690F2B55
:104240004ED8236A0F2B51D82B68B3F1804F53D02F
:104250005B4A934250D0EB68013B4FF6FE729342AB
:104260008CBF002301234BE040F6D931534801F0C5
:104270005FFEABE740F6DA31504801F059FEADE79A
:1042800040F6DB314D4801F053FEABE740F6DC3140
:104290004A4801F04DFEA9E740F6DD31474801F0FC
:1042A00047FEA7E740F6DE31444801F041FEA5E7AE
:1042B00040F6DF31414801F03BFEA3E74FF43E6199
:1042C0003E4801F035FEA1E740F6E1313B4801F000
:1042D0002FFEA7E740F6E231384801F029FEADE7AE
:1042E00040F6E331354801F023FEAAE740F6E43119
:1042F000324801F01DFEA7E7EB68003B18BF012321
:10430000002B4BD095F83D30002B4DD0022385F883
:104310003D302A68936823F4804323F007039360B9
:10432000294651F8040BFFF749FD29688B688A6913
:104330000E6A2068184322F4407222F00302A36838
:10434000A76943EA0723134323F47C4323F0FC03C8
:10435000E268E76942EA07221A43236A1B032769D6
:1043600043EA0713134326F0AA066268646942EA27
:1043700004123243886029688B612B681A6201231A
:1043800085F8463085F83E3085F83F3085F8423074
:1043900085F8433085F83D300020F8BD40F6E53122
:1043A000064801F0C5FDADE785F83C302846FDF72D
:1043B00077F8ABE7012070470000014060A80008D3
:1043C000000C00402DE9F04104460E46056A036AE0
:1043D00023F010030362D0F80480876927F4E647CE
:1043E0000B6847EA032725F020058B6845EA03158B
:1043F000224B984203D003F5806398420AD1F368B8
:104400000BB1082B27D125F08005F36845EA031589
:1044100025F04005194B9C4203D003F580639C4274
:1044200011D1B369B3F5007F00D0D3B97369B3F587
:10443000807F00D0DBB928F44068736948EA8308BC
:10444000B36948EA8308C4F80480A7617368A3636A
:104450002562BDE8F08141F61C31094801F068FD94
:10446000D1E741F62931064801F062FDDEE741F669
:104470002A31034801F05CFDDDE700BF0000014088
:1044800060A8000870B504460D4616460C2A2CD8C4
:1044900041F21113D34013F0010F28D02B68602B89
:1044A00001D0702B29D1AB680BB1022B2BD12B691A
:1044B0000BB1042B2DD194F83C30012B00F01A8164
:1044C000012384F83C300C2E00F20F81DFE816F057
:1044D00027000D010D010D0170000D010D010D01F1
:1044E000AA000D010D010D01DB003C2AD6D041F2DE
:1044F0008201814801F01CFDD0E741F283017E4832
:1045000001F016FDCFE741F284017B4801F010FD78
:10451000CDE741F28501784801F00AFDCBE7236839
:10452000764A93422FD0B3F1804F2CD0A2F57C4233
:10453000934228D002F58062934224D002F5806233
:10454000934220D002F5784293421CD002F570527B
:10455000934218D002F58062934214D002F5806233
:10456000934210D0A2F5983293420CD002F58062AB
:10457000934208D002F58062934204D041F28F0149
:104580005D4801F0D5FC29462068FFF745FA22680E
:10459000936943F0080393612268936923F004034D
:1045A00093612268936929690B43936100209DE020
:1045B0002368524A93421FD0B3F1804F1CD0A2F51A
:1045C0007C42934218D002F58062934214D002F5E7
:1045D0008062934210D002F5784293420CD002F5EB
:1045E0007052934208D0A2F59432934204D04FF413
:1045F0008551414801F09CFC29462068FFF7E2FE06
:104600002268936943F4006393612268936923F4F9
:104610008063936122689369296943EA0123936166
:10462000002063E02368354A934217D0B3F1804FEE
:1046300014D0A2F57C42934210D002F580629342DE
:104640000CD002F58062934208D002F57842934282
:1046500004D041F2B101284801F06AFC29462068E3
:10466000FFF734FA2268D36943F00803D361226864
:10467000D36923F00403D3612268D36929690B430A
:10468000D361002032E023681C4A934217D0B3F173
:10469000804F14D0A2F57C42934210D002F5806284
:1046A00093420CD002F58062934208D002F5784222
:1046B000934204D041F2C2010F4801F039FC29466F
:1046C0002068FFF761FA2268D36943F40063D3617D
:1046D0002268D36923F48063D3612268D36929698E
:1046E00043EA0123D361002000E00120002384F885
:1046F0003C3070BD0220FCE760A8000800000140CB
:1047000010B4846824F47F4C42EA03220A4342EA4C
:104710000C0282605DF8044B7047000038B590F8D9
:104720003C30012B00F0728204460D46012380F8D4
:104730003C30022380F83D300B68702B06D046D801
:10474000502B03D0602B01D0402B46D122689368B8
:1047500023F47F4323F0770393602B68602B00F0F2
:10476000AB8100F28F80402B00F0ED8149D8202BE7
:1047700003D042D80BB1102B3DD123689D4A934200
:104780001FD0B3F1804F1CD0A2F57C42934218D0C9
:1047900002F58062934214D002F58062934210D0F9
:1047A00002F5784293420CD002F57052934208D041
:1047B000A2F59432934204D041F235518E4801F073
:1047C000B7FB29682068FFF71EF90020AAE0B3F5BF
:1047D000805FBBD0B3F5005FB8D0002BB6D0102BF4
:1047E000B4D0202BB2D0302BB0D041F2C34182489C
:1047F00001F09EFBAAE7012094E0302BBDD0012000
:1048000090E0502B3CD123687A4A93421FD0B3F1F9
:10481000804F1CD0A2F57C42934218D002F58062F2
:10482000934214D002F58062934210D002F5784290
:1048300093420CD002F57052934208D0A2F5943204
:10484000934204D041F202516B4801F071FB6B6856
:10485000B3F5004F05D023B1022B02D00A2B40F054
:104860001F81EB680F2B00F22181EA6869682068DC
:10487000FFF7A2F850212068FFF7C5F8002051E0AB
:1048800001204FE0B3F5805F55D0B3F5005F00F035
:10489000B580702B4DD12368564A93421FD0B3F197
:1048A000804F1CD0A2F57C42934218D002F5806262
:1048B000934214D002F58062934210D002F5784200
:1048C00093420CD002F57052934208D0A2F5943274
:1048D000934204D041F2D641474801F029FBAB682E
:1048E00043B1B3F5805F05D0B3F5005F02D0B3F5F7
:1048F000405F6CD16B68B3F5004F04D01BB1022B45
:1049000001D00A2B69D1EB680F2B6CD8EB686A6871
:10491000A9682068FFF7F4FE2268936843F07703E4
:1049200093600020012384F83D30002384F83C305C
:1049300038BD0120F6E723682E4A934200F04A81F1
:10494000B3F1804F00F04881A2F57C42934200F021
:10495000458102F58062934200F0428102F5806257
:10496000934200F03F8102F58062934200F03C8167
:1049700002F58062934200F0398102F57042934261
:1049800000F0368102F57052934200F0338102F557
:104990008062934200F0308102F58062934200F021
:1049A0002D81A2F59832934200F02A8102F58062AF
:1049B000934200F0278102F58062934200F0248147
:1049C00041F2CF410C4801F0B3FA0020AAE741F2CE
:1049D000D941094801F0ACFA8CE741F2DA410648C6
:1049E00001F0A6FA8FE741F2DB41034801F0A0FA9B
:1049F0008CE700BF0000014060A800082368844ADB
:104A0000934217D0B3F1804F14D0A2F57C42934269
:104A100010D002F5806293420CD002F5806293427E
:104A200008D002F57842934204D041F2EE41794831
:104A300001F07EFAAB6843B1B3F5805F05D0B3F502
:104A4000005F02D0B3F5405F18D16B68B3F5004F3B
:104A500004D01BB1022B01D00A2B15D1EB680F2B10
:104A600018D8EB686A68A9682068FFF749FE2268D1
:104A7000936843F480439360002053E741F2F1418F
:104A8000644801F055FAE0E741F2F241614801F073
:104A90004FFAE3E741F2F3415E4801F049FAE0E7FB
:104AA00041F205515B4801F043FADAE641F2065162
:104AB000584801F03DFAD8E62368554A93421FD082
:104AC000B3F1804F1CD0A2F57C42934218D002F57E
:104AD0008062934214D002F58062934210D002F5B6
:104AE000784293420CD002F57052934208D0A2F55E
:104AF0009432934204D041F21251464801F018FA20
:104B00006B68B3F5004F04D01BB1022B01D00A2B08
:104B10000DD1EB680F2B10D8EA6869682068FEF7A2
:104B20005EFF60212068FEF76EFF0020FAE641F28A
:104B30001551384801F0FCF9EBE741F216513548C0
:104B400001F0F6F9E8E72368314A93421FD0B3F148
:104B5000804F1CD0A2F57C42934218D002F58062AF
:104B6000934214D002F58062934210D002F578424D
:104B700093420CD002F57052934208D0A2F59432C1
:104B8000934204D041F22251224801F0D1F96B68DE
:104B9000B3F5004F04D01BB1022B01D00A2B0DD16D
:104BA000EB680F2B10D8EA6869682068FEF704FFED
:104BB00040212068FEF727FF0020B3E641F225518F
:104BC000144801F0B5F9EBE741F22651114801F024
:104BD000AFF9E8E70020A5E60020A3E60020A1E663
:104BE00000209FE600209DE600209BE6002099E63D
:104BF000002097E6002095E6002093E6002091E64D
:104C000000208FE600208DE600208BE602208FE654
:104C10000000014060A8000870B504460D46164625
:104C2000274B98422FD0B0F1804F2CD0A3F57C4376
:104C3000984228D003F58063984224D003F580631E
:104C4000984220D003F5784398421CD003F5705366
:104C5000984218D003F58063984214D003F580631E
:104C6000984210D0A3F5983398420CD003F5806396
:104C7000984208D003F58063984204D041F69F51D2
:104C8000104801F055F90C2D12D841F21113EB40E8
:104C900013F0010F0ED005F01F050122AA40236A70
:104CA00023EA02032362236AAE401E43266270BDDC
:104CB0003C2DF0D04FF4ED51024801F039F9EAE70C
:104CC0000000014060A800082DE9F84304460E46A4
:104CD00090F83E50EDB290F83F70FFB290F84280ED
:104CE0005FFA88F890F843305FFA83F903683E4A28
:104CF00093421FD0B3F1804F1CD0A2F57C42934267
:104D000018D002F58062934214D002F5806293427B
:104D100010D002F5784293420CD002F570529342C3
:104D200008D0A2F59432934204D040F696412F4821
:104D300001F0FEF8BEB9012D48D1B8F1010F46D1FE
:104D4000022384F83E3084F842306EB3042E37D00C
:104D5000012200212068FFF75FFF01220421206863
:104D6000FFF75AFF25E0042E13D0012D36D1012F75
:104D70002DD1B8F1010F33D1B9F1010F32D1022396
:104D800084F83E3084F83F3084F8423084F8433071
:104D9000DBE7012F1ED1B9F1010F1DD1022384F8E9
:104DA0003F3084F84330D0E7012200212068FFF72C
:104DB00033FF2268136843F001031360002506E007
:104DC000012204212068FFF727FFF2E7012528468A
:104DD000BDE8F8830125FAE73D46F8E70125F6E747
:104DE0003D46F4E74546F2E70000014060A80008B0
:104DF00038B504460D460368414A93421FD0B3F1CB
:104E0000804F1CD0A2F57C42934218D002F58062FC
:104E1000934214D002F58062934210D002F5806272
:104E200093420CD002F58062934208D002F57042A2
:104E3000934204D040F2A971324801F079F82B680E
:104E40006BB1402B0BD04CD8202B08D0302B06D088
:104E5000102B04D040F2AA712A4801F069F86B685F
:104E6000802B01D0002B43D194F83C30012B45D04E
:104E7000012384F83C30022384F83D3023685968CC
:104E8000986821F070012A680A435A6023681C4A16
:104E900093421AD0B3F1804F17D0A2F57C429342CF
:104EA00013D002F5806293420FD002F580629342E4
:104EB0000BD002F57842934207D002F5705293422C
:104EC00003D0A2F59432934204D120F080006A68A6
:104ED00002439A60012384F83D30002084F83C00AE
:104EE00038BD602BBBD0702BB9D0502BB2D1B6E7F8
:104EF00040F2AB71034801F01BF8B5E70220EFE781
:104F00000000014098A8000838B504460D46036823
:104F1000444A934208D002F58062934204D040F2A2
:104F2000E671414801F004F82B68B3F5006F01D039
:104F3000002B4AD16B68B3F5806F01D0002B4AD1AA
:104F4000AB6843B1B3F5807F05D0B3F5007F02D0E5
:104F5000B3F5407F45D1EB68FF2B48D82B69B3F5FB
:104F6000805F01D0002B48D16B6913B1B3F5005FAE
:104F700049D1EB69B3F5804F01D0002B49D194F8AA
:104F80003C30012B4BD0012384F83C30EB6823F4F8
:104F90004073AA68134323F480636A68134323F4BD
:104FA00000632A68134323F480532A69134323F4CC
:104FB00000536A69134323F48043EA691343226868
:104FC0005364002084F83C0038BD40F2E771164875
:104FD00000F0AEFFAEE74FF4FD61134800F0A8FF0C
:104FE000AEE740F2E971104800F0A2FFB3E740F2EB
:104FF000EA710D4800F09CFFB0E740F2EB710A48FF
:1050000000F096FFB0E740F2EC71074800F090FF27
:10501000AFE740F2ED71044800F08AFFAFE70220ED
:10502000D2E700BF0000014098A8000800220260FB
:1050300042608260C260704700220260426082600B
:10504000C2607047024A0260024A0260704700BFB5
:10505000C8AA0008B8A90008024A0260024A026011
:10506000704700BF60AA000888A90008024A0260D1
:10507000024A0260704700BF38AB00089CA90008D4
:10508000024A0260024A0260704700BF94AA000808
:10509000D4A90008024A0260024A0260704700BFB9
:1050A00000AB0008ECA90008024A0260024A026054
:1050B000704700BF1CAA000808AA0008024A026044
:1050C000024A0260704700BF30AA000808AA000820
:1050D00010B50446044B0360044B0360042101F047
:1050E00079F9204610BD00BF30AA000808AA0008C0
:1050F00010B50446044B0360044B0360042101F027
:1051000069F9204610BD00BF1CAA000808AA0008C3
:1051100010B50446044B0360044B03600C2101F0FE
:1051200059F9204610BD00BFC8AA0008B8A9000858
:1051300010B50446044B0360044B0360082101F0E2
:1051400049F9204610BD00BF60AA000888A90008E0
:1051500010B50446044B0360044B03600C2101F0BE
:1051600039F9204610BD00BF38AB00089CA90008E3
:1051700010B50446044B0360044B0360082101F0A2
:1051800029F9204610BD00BF94AA0008D4A9000840
:1051900010B50446044B0360044B0360102101F07A
:1051A00019F9204610BD00BF00AB0008ECA90008AB
:1051B00072B6FEE700B595B03022002108A802F0D3
:1051C00073FC0023039304930593069307930193C1
:1051D0001F4A116C41F080511164126C02F0805230
:1051E0000192019A02931B4A116841F480411160B7
:1051F000126802F480420292029A0222089201216D
:105200000B9110210C910E920F9308231093A82359
:10521000119312920423139308A8FCF7A9FF98B9DD
:105220000F23039302230493002305934FF4A05309
:1052300006934FF480530793052103A8FDF76AFAFC
:1052400020B915B05DF804FBFFF7B2FFFFF7B0FF20
:10525000003802400070004000B589B0FEF764F8E5
:10526000FFF7A8FFFBF7C6FDFBF7E4FFFBF7FCFF2A
:10527000FCF732FAFCF78CFAFCF74EF8FCF77EF8F4
:10528000FCF7C4FAFCF7FCFAFCF7AAF8AC4B1B6875
:10529000BFF35B8F13F0010F05D1A94801F0F1FBBB
:1052A000002840F02282A74B1B68BFF35B8F13F0EE
:1052B000010F05D1A34801F0E4FB002840F024824F
:1052C000A14B1B68BFF35B8F13F0010F05D19E4804
:1052D00001F0D7FB002840F026829C4B1B68BFF3EF
:1052E0005B8F13F0010F05D1984801F0CAFB00282D
:1052F00040F02782964B1B68BFF35B8F13F0010FC2
:1053000005D1934801F0BDFB002840F02882914B65
:105310001B68BFF35B8F13F0010F05D18D4801F0BF
:10532000B0FB002840F02A828B4B1B68BFF35B8FD9
:1053300013F0010F05D1884801F0A3FB002840F0CD
:105340002C82864B1B68BFF35B8F13F0010F05D1D6
:10535000824801F096FB002840F02E82804B1B68AB
:10536000BFF35B8F13F0010F05D17D4801F089FB7E
:10537000002840F030827B4B1B68BFF35B8F13F03B
:10538000010F05D1774801F07CFB002840F0318205
:10539000754B1B68BFF35B8F13F0010F05D172488B
:1053A00001F06FFB002840F03282704B1B68BFF3A6
:1053B0005B8F13F0010F05D16C4801F062FB0028F0
:1053C00040F033826A4B1B68BFF35B8F13F0010F11
:1053D00005D1674801F055FB002840F09B82654BE2
:1053E0001B68BFF35B8F13F0010F05D1614801F01B
:1053F00048FB002840F09D825F4B1B68BFF35B8F2A
:1054000013F0010F05D15C4801F03BFB002840F090
:105410009E825A4B1B68BFF35B8F13F0010F05D1BF
:10542000564801F02EFB002840F09F82544B1B6829
:10543000BFF35B8F13F0010F05D1514801F021FB41
:10544000002840F0A0824F4B1B68BFF35B8F13F026
:10545000010F05D14B4801F014FB002840F0A08259
:10546000494B1B68BFF35B8F13F0010F05D1464812
:1054700001F007FB002840F0A082444B1B68BFF3FB
:105480005B8F13F0010F05D1404801F0FAFA0028B4
:1054900040F0A0823E4B1B68BFF35B8F13F0010FFF
:1054A00005D13B4801F0EDFA002840F09C82394BD1
:1054B0001B68BFF35B8F13F0010F05D1354801F076
:1054C000E0FA002840F09882334B1B68BFF35B8FF3
:1054D00013F0010F05D1304801F0D3FA002840F055
:1054E00094822E4B1B68BFF35B8F13F0010F05D125
:1054F0002A4801F0C6FA002840F09082284B1B6829
:10550000BFF35B8F13F0010F05D1254801F0B9FA05
:10551000002840F09082234B1B68BFF35B8F13F091
:10552000010F05D11F4801F0ACFA002840F090822D
:105530001D4B1B68BFF35B8F13F0010F3CD135E0AF
:10554000240800201408002004080020F40700208C
:10555000E4070020D4070020C4070020B40700207F
:10556000A40700209407002084070020740700206F
:10557000640700205407002044070020340700205F
:10558000280700201C070020100700200407002027
:10559000F8060020EC060020E0060020D0060020DF
:1055A000C4060020B8060020A4060020A64801F08A
:1055B00068FA002840F05982A44B1B68BFF35B8F48
:1055C00013F0010F05D1A14801F05BFA002840F06B
:1055D0005B829F4B1B68BFF35B8F13F0010F05D1FC
:1055E0009B4801F04EFA002840F05882994B1B6806
:1055F000BFF35B8F13F0010F05D1964801F041FA1C
:10560000002840F06582944B1B68BFF35B8F13F05A
:10561000010F05D1904801F034FA002840F0608273
:105620008E4B1B68BFF35B8F13F0010F05D18B48C6
:1056300001F027FA002840F05D82894B1B68BFF318
:105640005B8F13F0010F05D1854801F01AFA00288D
:1056500040F05C82834B1B68BFF35B8F13F0010F3C
:1056600005D1804801F00DFA002840F05B827E4BA6
:105670001B68BFF35B8F13F0010F05D17A4801F06F
:1056800000FA002840F05782784B1B68BFF35B8F0D
:1056900013F0010F00F05882754B1B68BFF35B8F4E
:1056A00013F0010F00F05F82724B1B68BFF35B8F3A
:1056B00013F0010F40F02A836E4801F0E2F9002850
:1056C00000F024836C4B05936C4B04936C4B039359
:1056D0006C4B02936C4B01936C4B00936C4B6D4A7B
:1056E0006D496E4800F05EFD4CE24FF400426C499B
:1056F0006C4800F0BBFC6C4A6C496A4800F0F1FD54
:105700006B4801F0CDF9CEE54FF480426449694819
:1057100000F0ACFC644A6549664800F0E2FD66486A
:1057200001F0BEF9CCE520225D49644800F09EFC02
:105730005D4A5E49614800F0D4FD614801F0B0F96E
:10574000CBE5102256495F4800F090FC564A574975
:105750005C4800F0C6FD5C4801F0A2F9CAE54FF4D0
:1057600080525A495A4800F081FC4F4A4F495848E4
:1057700000F0B7FD574801F093F9C8E54FF4006217
:105780005249554800F072FC474A4849524800F0D7
:10579000A8FD524801F084F9C6E54FF480624B49F8
:1057A0004F4800F063FC404A40494D4800F099FDE5
:1057B0004C4801F075F9C4E54FF480724A494B48F2
:1057C00000F054FC384A3949484800F08AFD4848FE
:1057D00001F066F9C2E580223C49464800F046FCEB
:1057E000314A3249434800F07CFD434801F058F902
:1057F000C1E504223C49414800F038FC2A4A2B49C3
:105800003E4800F06EFD3E4801F04AF9C0E508222E
:1058100035493C4800F02AFC234A2449394800F025
:1058200060FD394801F03CF9BFE54FF4807227492B
:10583000364800F01BFC1C4A1C49344800F051FD5E
:10584000334801F02DF9BDE5A4060020980600209C
:10585000640600205806002048060020300600207C
:105860001806002008060020F8050020F405002096
:10587000F005002094050020140000201C060020E4
:1058800034060020FC0500200C0600204C060020F9
:105890005C060020680600209C0600209805002079
:1058A00000040240280800200000002045500008A5
:1058B00024080020180800201408002008080020F0
:1058C00004080020F8070020F40700200000024030
:1058D000E8070020E4070020D8070020D4070020B4
:1058E000C8070020C407002000080240B8070020B5
:1058F000B4070020A8070020A40700209807002074
:1059000094070020880700208407002078070020E3
:10591000740700204FF400429F49A04800F0A6FB06
:105920009F4AA0499D4800F0DCFC9F4801F0B8F870
:1059300055E501229D499E4800F098FB984A9949F7
:105940009B4800F0CEFC9B4801F0AAF854E50222E7
:105950009649994800F08AFB914A9249964800F08E
:10596000C0FC964801F09CF853E5202294499548E4
:1059700000F07CFB8A4A8B49924800F0B2FC9248C6
:1059800001F08EF852E59149914800F01FFB844ADE
:1059900090498F4800F0A5FC8F4801F081F852E54E
:1059A0008E498F4800F012FB7D4A8A498C4800F0EE
:1059B00098FC8C4801F074F852E58B498B4800F054
:1059C00005FB774A8349894800F08BFC884801F041
:1059D00067F852E500228749874800F055FB874861
:1059E00001F05EF856E500228549864800F04CFB40
:1059F000854801F055F85AE500228449844800F0B2
:105A000043FB844801F04CF85EE50022824983485C
:105A100000F03AFB824801F043F862E58149824890
:105A200000F068FB5E4A81497F4800F05AFC8048DC
:105A300001F036F862E57F497F4800F0E9FA584AFC
:105A40007E497D4800F04DFC7D4801F029F862E573
:105A50007C497D4800F0DCFA514A78497A4800F0E8
:105A600040FC7A4801F01CF862E510234A4A784964
:105A7000784800F023FB4A4A7749764800F031FC29
:105A8000764801F00DF897E54FF47A724D49744865
:105A900000F03CFB734801F003F89AE5464B07938E
:105AA000434B06933D4B05936F4B04936F4B03930E
:105AB0006F4B02936F4B01936F4B00936F4B704A88
:105AC0007049714800F056FB704800F0E9FF8DE521
:105AD00060496F4800F04AFB6E4800F0E1FF92E534
